{
  "contractName": "HiltiContract",
  "abi": [
    {
      "inputs": [],
      "payable": false,
      "stateMutability": "nonpayable",
      "type": "constructor"
    },
    {
      "anonymous": false,
      "inputs": [
        {
          "indexed": false,
          "internalType": "address",
          "name": "accountUser",
          "type": "address"
        },
        {
          "indexed": false,
          "internalType": "uint256",
          "name": "amount",
          "type": "uint256"
        }
      ],
      "name": "AccountCredited",
      "type": "event"
    },
    {
      "anonymous": false,
      "inputs": [
        {
          "indexed": true,
          "internalType": "address",
          "name": "owner",
          "type": "address"
        },
        {
          "indexed": true,
          "internalType": "address",
          "name": "spender",
          "type": "address"
        },
        {
          "indexed": false,
          "internalType": "uint256",
          "name": "value",
          "type": "uint256"
        }
      ],
      "name": "Approval",
      "type": "event"
    },
    {
      "anonymous": false,
      "inputs": [
        {
          "indexed": false,
          "internalType": "address",
          "name": "accountUser",
          "type": "address"
        },
        {
          "indexed": false,
          "internalType": "address",
          "name": "accountTool",
          "type": "address"
        },
        {
          "indexed": false,
          "internalType": "uint256",
          "name": "timeStamp",
          "type": "uint256"
        },
        {
          "indexed": false,
          "internalType": "uint256",
          "name": "usageTime",
          "type": "uint256"
        }
      ],
      "name": "DataUploaded",
      "type": "event"
    },
    {
      "anonymous": false,
      "inputs": [
        {
          "indexed": false,
          "internalType": "address",
          "name": "accountUser",
          "type": "address"
        },
        {
          "indexed": false,
          "internalType": "uint256",
          "name": "amount",
          "type": "uint256"
        }
      ],
      "name": "DiscountCredited",
      "type": "event"
    },
    {
      "anonymous": false,
      "inputs": [
        {
          "indexed": true,
          "internalType": "address",
          "name": "account",
          "type": "address"
        }
      ],
      "name": "HiltiAdded",
      "type": "event"
    },
    {
      "anonymous": false,
      "inputs": [
        {
          "indexed": true,
          "internalType": "address",
          "name": "account",
          "type": "address"
        }
      ],
      "name": "HiltiRemoved",
      "type": "event"
    },
    {
      "anonymous": false,
      "inputs": [
        {
          "indexed": false,
          "internalType": "address",
          "name": "sender",
          "type": "address"
        },
        {
          "indexed": false,
          "internalType": "address",
          "name": "recipient",
          "type": "address"
        },
        {
          "indexed": false,
          "internalType": "uint256",
          "name": "amount",
          "type": "uint256"
        }
      ],
      "name": "HiltiTokenTransferred",
      "type": "event"
    },
    {
      "anonymous": false,
      "inputs": [
        {
          "indexed": false,
          "internalType": "address",
          "name": "accountUser",
          "type": "address"
        },
        {
          "indexed": false,
          "internalType": "address",
          "name": "accountTool",
          "type": "address"
        }
      ],
      "name": "ToolAssigned",
      "type": "event"
    },
    {
      "anonymous": false,
      "inputs": [
        {
          "indexed": true,
          "internalType": "address",
          "name": "from",
          "type": "address"
        },
        {
          "indexed": true,
          "internalType": "address",
          "name": "to",
          "type": "address"
        },
        {
          "indexed": false,
          "internalType": "uint256",
          "name": "value",
          "type": "uint256"
        }
      ],
      "name": "Transfer",
      "type": "event"
    },
    {
      "anonymous": false,
      "inputs": [
        {
          "indexed": false,
          "internalType": "address",
          "name": "accountTool",
          "type": "address"
        }
      ],
      "name": "UploadRequest",
      "type": "event"
    },
    {
      "constant": true,
      "inputs": [],
      "name": "INITIAL_SUPPLY",
      "outputs": [
        {
          "internalType": "uint256",
          "name": "",
          "type": "uint256"
        }
      ],
      "payable": false,
      "stateMutability": "view",
      "type": "function"
    },
    {
      "constant": true,
      "inputs": [
        {
          "internalType": "address",
          "name": "owner",
          "type": "address"
        },
        {
          "internalType": "address",
          "name": "spender",
          "type": "address"
        }
      ],
      "name": "allowance",
      "outputs": [
        {
          "internalType": "uint256",
          "name": "",
          "type": "uint256"
        }
      ],
      "payable": false,
      "stateMutability": "view",
      "type": "function"
    },
    {
      "constant": false,
      "inputs": [
        {
          "internalType": "address",
          "name": "spender",
          "type": "address"
        },
        {
          "internalType": "uint256",
          "name": "amount",
          "type": "uint256"
        }
      ],
      "name": "approve",
      "outputs": [
        {
          "internalType": "bool",
          "name": "",
          "type": "bool"
        }
      ],
      "payable": false,
      "stateMutability": "nonpayable",
      "type": "function"
    },
    {
      "constant": true,
      "inputs": [
        {
          "internalType": "address",
          "name": "account",
          "type": "address"
        }
      ],
      "name": "balanceOf",
      "outputs": [
        {
          "internalType": "uint256",
          "name": "",
          "type": "uint256"
        }
      ],
      "payable": false,
      "stateMutability": "view",
      "type": "function"
    },
    {
      "constant": true,
      "inputs": [],
      "name": "decimals",
      "outputs": [
        {
          "internalType": "uint8",
          "name": "",
          "type": "uint8"
        }
      ],
      "payable": false,
      "stateMutability": "view",
      "type": "function"
    },
    {
      "constant": false,
      "inputs": [
        {
          "internalType": "address",
          "name": "spender",
          "type": "address"
        },
        {
          "internalType": "uint256",
          "name": "subtractedValue",
          "type": "uint256"
        }
      ],
      "name": "decreaseAllowance",
      "outputs": [
        {
          "internalType": "bool",
          "name": "",
          "type": "bool"
        }
      ],
      "payable": false,
      "stateMutability": "nonpayable",
      "type": "function"
    },
    {
      "constant": false,
      "inputs": [
        {
          "internalType": "address",
          "name": "spender",
          "type": "address"
        },
        {
          "internalType": "uint256",
          "name": "addedValue",
          "type": "uint256"
        }
      ],
      "name": "increaseAllowance",
      "outputs": [
        {
          "internalType": "bool",
          "name": "",
          "type": "bool"
        }
      ],
      "payable": false,
      "stateMutability": "nonpayable",
      "type": "function"
    },
    {
      "constant": true,
      "inputs": [
        {
          "internalType": "address",
          "name": "account",
          "type": "address"
        }
      ],
      "name": "isHilti",
      "outputs": [
        {
          "internalType": "bool",
          "name": "",
          "type": "bool"
        }
      ],
      "payable": false,
      "stateMutability": "view",
      "type": "function"
    },
    {
      "constant": true,
      "inputs": [],
      "name": "name",
      "outputs": [
        {
          "internalType": "string",
          "name": "",
          "type": "string"
        }
      ],
      "payable": false,
      "stateMutability": "view",
      "type": "function"
    },
    {
      "constant": false,
      "inputs": [],
      "name": "renouncHilti",
      "outputs": [],
      "payable": false,
      "stateMutability": "nonpayable",
      "type": "function"
    },
    {
      "constant": true,
      "inputs": [],
      "name": "symbol",
      "outputs": [
        {
          "internalType": "string",
          "name": "",
          "type": "string"
        }
      ],
      "payable": false,
      "stateMutability": "view",
      "type": "function"
    },
    {
      "constant": true,
      "inputs": [],
      "name": "totalSupply",
      "outputs": [
        {
          "internalType": "uint256",
          "name": "",
          "type": "uint256"
        }
      ],
      "payable": false,
      "stateMutability": "view",
      "type": "function"
    },
    {
      "constant": false,
      "inputs": [
        {
          "internalType": "address",
          "name": "recipient",
          "type": "address"
        },
        {
          "internalType": "uint256",
          "name": "amount",
          "type": "uint256"
        }
      ],
      "name": "transfer",
      "outputs": [
        {
          "internalType": "bool",
          "name": "",
          "type": "bool"
        }
      ],
      "payable": false,
      "stateMutability": "nonpayable",
      "type": "function"
    },
    {
      "constant": false,
      "inputs": [
        {
          "internalType": "address",
          "name": "sender",
          "type": "address"
        },
        {
          "internalType": "address",
          "name": "recipient",
          "type": "address"
        },
        {
          "internalType": "uint256",
          "name": "amount",
          "type": "uint256"
        }
      ],
      "name": "transferFrom",
      "outputs": [
        {
          "internalType": "bool",
          "name": "",
          "type": "bool"
        }
      ],
      "payable": false,
      "stateMutability": "nonpayable",
      "type": "function"
    },
    {
      "constant": false,
      "inputs": [
        {
          "internalType": "address",
          "name": "_account",
          "type": "address"
        }
      ],
      "name": "addUser",
      "outputs": [],
      "payable": false,
      "stateMutability": "nonpayable",
      "type": "function"
    },
    {
      "constant": false,
      "inputs": [
        {
          "internalType": "address",
          "name": "_account",
          "type": "address"
        }
      ],
      "name": "addTool",
      "outputs": [],
      "payable": false,
      "stateMutability": "nonpayable",
      "type": "function"
    },
    {
      "constant": true,
      "inputs": [],
      "name": "get",
      "outputs": [
        {
          "internalType": "uint256",
          "name": "",
          "type": "uint256"
        }
      ],
      "payable": false,
      "stateMutability": "view",
      "type": "function"
    },
    {
      "constant": false,
      "inputs": [
        {
          "internalType": "address",
          "name": "_accountUser",
          "type": "address"
        },
        {
          "internalType": "address",
          "name": "_accountTool",
          "type": "address"
        }
      ],
      "name": "registerTool",
      "outputs": [],
      "payable": false,
      "stateMutability": "nonpayable",
      "type": "function"
    },
    {
      "constant": false,
      "inputs": [
        {
          "internalType": "address",
          "name": "_accountTool",
          "type": "address"
        }
      ],
      "name": "requestUpload",
      "outputs": [],
      "payable": false,
      "stateMutability": "nonpayable",
      "type": "function"
    },
    {
      "constant": false,
      "inputs": [
        {
          "internalType": "address",
          "name": "_accountTool",
          "type": "address"
        },
        {
          "internalType": "uint256",
          "name": "_usageTime",
          "type": "uint256"
        }
      ],
      "name": "uploadData",
      "outputs": [],
      "payable": false,
      "stateMutability": "nonpayable",
      "type": "function"
    },
    {
      "constant": false,
      "inputs": [],
      "name": "claimTokens",
      "outputs": [],
      "payable": false,
      "stateMutability": "nonpayable",
      "type": "function"
    },
    {
      "constant": false,
      "inputs": [
        {
          "internalType": "address",
          "name": "_recipient",
          "type": "address"
        },
        {
          "internalType": "uint256",
          "name": "_amount",
          "type": "uint256"
        }
      ],
      "name": "transferToken",
      "outputs": [],
      "payable": false,
      "stateMutability": "nonpayable",
      "type": "function"
    },
    {
      "constant": false,
      "inputs": [
        {
          "internalType": "uint256",
          "name": "_amount",
          "type": "uint256"
        }
      ],
      "name": "redeemDiscount",
      "outputs": [],
      "payable": false,
      "stateMutability": "nonpayable",
      "type": "function"
    },
    {
      "constant": true,
      "inputs": [
        {
          "internalType": "address",
          "name": "_account",
          "type": "address"
        }
      ],
      "name": "fetchUserData",
      "outputs": [
        {
          "internalType": "address",
          "name": "",
          "type": "address"
        },
        {
          "internalType": "address[]",
          "name": "",
          "type": "address[]"
        },
        {
          "internalType": "uint256",
          "name": "",
          "type": "uint256"
        },
        {
          "internalType": "uint256",
          "name": "",
          "type": "uint256"
        }
      ],
      "payable": false,
      "stateMutability": "view",
      "type": "function"
    },
    {
      "constant": true,
      "inputs": [
        {
          "internalType": "address",
          "name": "_account",
          "type": "address"
        }
      ],
      "name": "fetchToolData",
      "outputs": [
        {
          "internalType": "address",
          "name": "",
          "type": "address"
        },
        {
          "internalType": "uint256[]",
          "name": "",
          "type": "uint256[]"
        },
        {
          "internalType": "uint256[]",
          "name": "",
          "type": "uint256[]"
        },
        {
          "internalType": "bool",
          "name": "",
          "type": "bool"
        },
        {
          "internalType": "address",
          "name": "",
          "type": "address"
        },
        {
          "internalType": "bool",
          "name": "",
          "type": "bool"
        }
      ],
      "payable": false,
      "stateMutability": "view",
      "type": "function"
    }
  ],
  "bytecode": "0x60806040526040518060400160405280600a81526020017f48696c7469546f6b656e000000000000000000000000000000000000000000008152506003908051906020019062000051929190620005b3565b506040518060400160405280600581526020017f48494c5449000000000000000000000000000000000000000000000000000000815250600490805190602001906200009f929190620005b3565b506000600560006101000a81548160ff021916908360ff1602179055506000600655348015620000ce57600080fd5b50620000e3336006546200013b60201b60201c565b620000f4336200030560201b60201c565b33600860006101000a81548173ffffffffffffffffffffffffffffffffffffffff021916908373ffffffffffffffffffffffffffffffffffffffff16021790555062000662565b600073ffffffffffffffffffffffffffffffffffffffff168273ffffffffffffffffffffffffffffffffffffffff161415620001df576040517f08c379a000000000000000000000000000000000000000000000000000000000815260040180806020018281038252601f8152602001807f45524332303a206d696e7420746f20746865207a65726f20616464726573730081525060200191505060405180910390fd5b620001fb816002546200036660201b620030ac1790919060201c565b60028190555062000259816000808573ffffffffffffffffffffffffffffffffffffffff1673ffffffffffffffffffffffffffffffffffffffff168152602001908152602001600020546200036660201b620030ac1790919060201c565b6000808473ffffffffffffffffffffffffffffffffffffffff1673ffffffffffffffffffffffffffffffffffffffff168152602001908152602001600020819055508173ffffffffffffffffffffffffffffffffffffffff16600073ffffffffffffffffffffffffffffffffffffffff167fddf252ad1be2c89b69c2b068fc378daa952ba7f163c4a11628f55a4df523b3ef836040518082815260200191505060405180910390a35050565b62000320816007620003ef60201b62003b731790919060201c565b8073ffffffffffffffffffffffffffffffffffffffff167fc846bdb9eebcaecb800772b10fc39f9f0d434e2e797a40e9f0c28819131fda3d60405160405180910390a250565b600080828401905083811015620003e5576040517f08c379a000000000000000000000000000000000000000000000000000000000815260040180806020018281038252601b8152602001807f536166654d6174683a206164646974696f6e206f766572666c6f77000000000081525060200191505060405180910390fd5b8091505092915050565b620004018282620004d360201b60201c565b1562000475576040517f08c379a000000000000000000000000000000000000000000000000000000000815260040180806020018281038252601f8152602001807f526f6c65733a206163636f756e7420616c72656164792068617320726f6c650081525060200191505060405180910390fd5b60018260000160008373ffffffffffffffffffffffffffffffffffffffff1673ffffffffffffffffffffffffffffffffffffffff16815260200190815260200160002060006101000a81548160ff0219169083151502179055505050565b60008073ffffffffffffffffffffffffffffffffffffffff168273ffffffffffffffffffffffffffffffffffffffff1614156200055c576040517f08c379a0000000000000000000000000000000000000000000000000000000008152600401808060200182810382526022815260200180620045476022913960400191505060405180910390fd5b8260000160008373ffffffffffffffffffffffffffffffffffffffff1673ffffffffffffffffffffffffffffffffffffffff16815260200190815260200160002060009054906101000a900460ff16905092915050565b828054600181600116156101000203166002900490600052602060002090601f016020900481019282601f10620005f657805160ff191683800117855562000627565b8280016001018555821562000627579182015b828111156200062657825182559160200191906001019062000609565b5b5090506200063691906200063a565b5090565b6200065f91905b808211156200065b57600081600090555060010162000641565b5090565b90565b613ed580620006726000396000f3fe608060405234801561001057600080fd5b50600436106101735760003560e01c80632ff2e9dc116100de57806348c54b9d1161009757806395d89b411161007157806395d89b41146108c4578063a457c2d714610947578063a9059cbb146109ad578063dd62ed3e14610a1357610173565b806348c54b9d146108445780636d4ce63c1461084e57806370a082311461086c57610173565b80632ff2e9dc146106d0578063313ce567146106ee57806339509351146107125780633cd06afd146107785780633cd3eab1146107bc578063421b2d8b1461080057610173565b806318160ddd1161013057806318160ddd146104725780631b96b3131461049057806320ced446146104de57806323b872dd146105b857806328ec95531461063e578063298ff14b146106a257610173565b8063051817ca146101785780630661a28e1461018257806306fdde03146101de578063095ea7b3146102615780630acd410e146102c75780631072cbea14610424575b600080fd5b610180610a8b565b005b6101c46004803603602081101561019857600080fd5b81019080803573ffffffffffffffffffffffffffffffffffffffff169060200190929190505050610a96565b604051808215151515815260200191505060405180910390f35b6101e6610ab3565b6040518080602001828103825283818151815260200191508051906020019080838360005b8381101561022657808201518184015260208101905061020b565b50505050905090810190601f1680156102535780820380516001836020036101000a031916815260200191505b509250505060405180910390f35b6102ad6004803603604081101561027757600080fd5b81019080803573ffffffffffffffffffffffffffffffffffffffff16906020019092919080359060200190929190505050610b51565b604051808215151515815260200191505060405180910390f35b610309600480360360208110156102dd57600080fd5b81019080803573ffffffffffffffffffffffffffffffffffffffff169060200190929190505050610b6f565b604051808773ffffffffffffffffffffffffffffffffffffffff1673ffffffffffffffffffffffffffffffffffffffff1681526020018060200180602001861515151581526020018573ffffffffffffffffffffffffffffffffffffffff1673ffffffffffffffffffffffffffffffffffffffff16815260200184151515158152602001838103835288818151815260200191508051906020019060200280838360005b838110156103c85780820151818401526020810190506103ad565b50505050905001838103825287818151815260200191508051906020019060200280838360005b8381101561040a5780820151818401526020810190506103ef565b505050509050019850505050505050505060405180910390f35b6104706004803603604081101561043a57600080fd5b81019080803573ffffffffffffffffffffffffffffffffffffffff16906020019092919080359060200190929190505050610e1c565b005b61047a61115c565b6040518082815260200191505060405180910390f35b6104dc600480360360408110156104a657600080fd5b81019080803573ffffffffffffffffffffffffffffffffffffffff16906020019092919080359060200190929190505050611166565b005b610520600480360360208110156104f457600080fd5b81019080803573ffffffffffffffffffffffffffffffffffffffff1690602001909291905050506116e3565b604051808573ffffffffffffffffffffffffffffffffffffffff1673ffffffffffffffffffffffffffffffffffffffff16815260200180602001848152602001838152602001828103825285818151815260200191508051906020019060200280838360005b838110156105a1578082015181840152602081019050610586565b505050509050019550505050505060405180910390f35b610624600480360360608110156105ce57600080fd5b81019080803573ffffffffffffffffffffffffffffffffffffffff169060200190929190803573ffffffffffffffffffffffffffffffffffffffff169060200190929190803590602001909291905050506118ac565b604051808215151515815260200191505060405180910390f35b6106a06004803603604081101561065457600080fd5b81019080803573ffffffffffffffffffffffffffffffffffffffff169060200190929190803573ffffffffffffffffffffffffffffffffffffffff169060200190929190505050611985565b005b6106ce600480360360208110156106b857600080fd5b8101908080359060200190929190505050611d74565b005b6106d8612085565b6040518082815260200191505060405180910390f35b6106f661208b565b604051808260ff1660ff16815260200191505060405180910390f35b61075e6004803603604081101561072857600080fd5b81019080803573ffffffffffffffffffffffffffffffffffffffff1690602001909291908035906020019092919050505061209e565b604051808215151515815260200191505060405180910390f35b6107ba6004803603602081101561078e57600080fd5b81019080803573ffffffffffffffffffffffffffffffffffffffff169060200190929190505050612151565b005b6107fe600480360360208110156107d257600080fd5b81019080803573ffffffffffffffffffffffffffffffffffffffff169060200190929190505050612440565b005b6108426004803603602081101561081657600080fd5b81019080803573ffffffffffffffffffffffffffffffffffffffff1690602001909291905050506126c8565b005b61084c612869565b005b610856612b11565b6040518082815260200191505060405180910390f35b6108ae6004803603602081101561088257600080fd5b81019080803573ffffffffffffffffffffffffffffffffffffffff169060200190929190505050612b1d565b6040518082815260200191505060405180910390f35b6108cc612b65565b6040518080602001828103825283818151815260200191508051906020019080838360005b8381101561090c5780820151818401526020810190506108f1565b50505050905090810190601f1680156109395780820380516001836020036101000a031916815260200191505b509250505060405180910390f35b6109936004803603604081101561095d57600080fd5b81019080803573ffffffffffffffffffffffffffffffffffffffff16906020019092919080359060200190929190505050612c03565b604051808215151515815260200191505060405180910390f35b6109f9600480360360408110156109c357600080fd5b81019080803573ffffffffffffffffffffffffffffffffffffffff16906020019092919080359060200190929190505050612cd0565b604051808215151515815260200191505060405180910390f35b610a7560048036036040811015610a2957600080fd5b81019080803573ffffffffffffffffffffffffffffffffffffffff169060200190929190803573ffffffffffffffffffffffffffffffffffffffff169060200190929190505050612cee565b6040518082815260200191505060405180910390f35b610a9433612d75565b565b6000610aac826007612dcf90919063ffffffff16565b9050919050565b60038054600181600116156101000203166002900480601f016020809104026020016040519081016040528092919081815260200182805460018160011615610100020316600290048015610b495780601f10610b1e57610100808354040283529160200191610b49565b820191906000526020600020905b815481529060010190602001808311610b2c57829003601f168201915b505050505081565b6000610b65610b5e612ead565b8484612eb5565b6001905092915050565b60006060806000806000600a60008873ffffffffffffffffffffffffffffffffffffffff1673ffffffffffffffffffffffffffffffffffffffff16815260200190815260200160002060000160009054906101000a900473ffffffffffffffffffffffffffffffffffffffff16600a60008973ffffffffffffffffffffffffffffffffffffffff1673ffffffffffffffffffffffffffffffffffffffff168152602001908152602001600020600101600a60008a73ffffffffffffffffffffffffffffffffffffffff1673ffffffffffffffffffffffffffffffffffffffff168152602001908152602001600020600201600a60008b73ffffffffffffffffffffffffffffffffffffffff1673ffffffffffffffffffffffffffffffffffffffff16815260200190815260200160002060030160009054906101000a900460ff16600a60008c73ffffffffffffffffffffffffffffffffffffffff1673ffffffffffffffffffffffffffffffffffffffff16815260200190815260200160002060030160019054906101000a900473ffffffffffffffffffffffffffffffffffffffff16600a60008d73ffffffffffffffffffffffffffffffffffffffff1673ffffffffffffffffffffffffffffffffffffffff16815260200190815260200160002060030160159054906101000a900460ff1684805480602002602001604051908101604052809291908181526020018280548015610dae57602002820191906000526020600020905b815481526020019060010190808311610d9a575b5050505050945083805480602002602001604051908101604052809291908181526020018280548015610e0057602002820191906000526020600020905b815481526020019060010190808311610dec575b5050505050935095509550955095509550955091939550919395565b33600073ffffffffffffffffffffffffffffffffffffffff16600960008373ffffffffffffffffffffffffffffffffffffffff1673ffffffffffffffffffffffffffffffffffffffff16815260200190815260200160002060000160009054906101000a900473ffffffffffffffffffffffffffffffffffffffff1673ffffffffffffffffffffffffffffffffffffffff161415610f22576040517f08c379a00000000000000000000000000000000000000000000000000000000081526004018080602001828103825260168152602001807f55736572206973206e6f7420726567697374657265640000000000000000000081525060200191505060405180910390fd5b82600073ffffffffffffffffffffffffffffffffffffffff16600960008373ffffffffffffffffffffffffffffffffffffffff1673ffffffffffffffffffffffffffffffffffffffff16815260200190815260200160002060000160009054906101000a900473ffffffffffffffffffffffffffffffffffffffff1673ffffffffffffffffffffffffffffffffffffffff161415611028576040517f08c379a00000000000000000000000000000000000000000000000000000000081526004018080602001828103825260168152602001807f55736572206973206e6f7420726567697374657265640000000000000000000081525060200191505060405180910390fd5b600061103333612b1d565b9050838110156110ab576040517f08c379a000000000000000000000000000000000000000000000000000000000815260040180806020018281038252601d8152602001807f546f6b656e42616c616e6365206e6f74206c6172676520656e6f75676800000081525060200191505060405180910390fd5b6110b58585612cd0565b507fe4b55ea04d5078942bd5ce571c7eb4d433aa5b0c6373752a7e899370ff083ddd338686604051808473ffffffffffffffffffffffffffffffffffffffff1673ffffffffffffffffffffffffffffffffffffffff1681526020018373ffffffffffffffffffffffffffffffffffffffff1673ffffffffffffffffffffffffffffffffffffffff168152602001828152602001935050505060405180910390a15050505050565b6000600254905090565b33600073ffffffffffffffffffffffffffffffffffffffff16600960008373ffffffffffffffffffffffffffffffffffffffff1673ffffffffffffffffffffffffffffffffffffffff16815260200190815260200160002060000160009054906101000a900473ffffffffffffffffffffffffffffffffffffffff1673ffffffffffffffffffffffffffffffffffffffff16141561126c576040517f08c379a00000000000000000000000000000000000000000000000000000000081526004018080602001828103825260168152602001807f55736572206973206e6f7420726567697374657265640000000000000000000081525060200191505060405180910390fd5b82600073ffffffffffffffffffffffffffffffffffffffff16600a60008373ffffffffffffffffffffffffffffffffffffffff1673ffffffffffffffffffffffffffffffffffffffff16815260200190815260200160002060000160009054906101000a900473ffffffffffffffffffffffffffffffffffffffff1673ffffffffffffffffffffffffffffffffffffffff161415611372576040517f08c379a00000000000000000000000000000000000000000000000000000000081526004018080602001828103825260168152602001807f546f6f6c206973206e6f7420726567697374657265640000000000000000000081525060200191505060405180910390fd5b3373ffffffffffffffffffffffffffffffffffffffff16600a60008673ffffffffffffffffffffffffffffffffffffffff1673ffffffffffffffffffffffffffffffffffffffff16815260200190815260200160002060030160019054906101000a900473ffffffffffffffffffffffffffffffffffffffff1673ffffffffffffffffffffffffffffffffffffffff1614611458576040517f08c379a000000000000000000000000000000000000000000000000000000000815260040180806020018281038252602b815260200180613d9f602b913960400191505060405180910390fd5b60011515600a60008673ffffffffffffffffffffffffffffffffffffffff1673ffffffffffffffffffffffffffffffffffffffff16815260200190815260200160002060030160159054906101000a900460ff16151514611504576040517f08c379a0000000000000000000000000000000000000000000000000000000008152600401808060200182810382526026815260200180613c4f6026913960400191505060405180910390fd5b600a60008573ffffffffffffffffffffffffffffffffffffffff1673ffffffffffffffffffffffffffffffffffffffff168152602001908152602001600020600101839080600181540180825580915050906001820390600052602060002001600090919290919091505550600a60008573ffffffffffffffffffffffffffffffffffffffff1673ffffffffffffffffffffffffffffffffffffffff168152602001908152602001600020600201429080600181540180825580915050906001820390600052602060002001600090919290919091505550611635600160ff16600960003373ffffffffffffffffffffffffffffffffffffffff1673ffffffffffffffffffffffffffffffffffffffff168152602001908152602001600020600201546130ac90919063ffffffff16565b507fc1228c54807482273c4551679a9ee440039c57d4cce0ac70e715c07fdac8468633854286604051808573ffffffffffffffffffffffffffffffffffffffff1673ffffffffffffffffffffffffffffffffffffffff1681526020018473ffffffffffffffffffffffffffffffffffffffff1673ffffffffffffffffffffffffffffffffffffffff16815260200183815260200182815260200194505050505060405180910390a150505050565b60006060600080600960008673ffffffffffffffffffffffffffffffffffffffff1673ffffffffffffffffffffffffffffffffffffffff16815260200190815260200160002060000160009054906101000a900473ffffffffffffffffffffffffffffffffffffffff16600960008773ffffffffffffffffffffffffffffffffffffffff1673ffffffffffffffffffffffffffffffffffffffff168152602001908152602001600020600101600960008873ffffffffffffffffffffffffffffffffffffffff1673ffffffffffffffffffffffffffffffffffffffff16815260200190815260200160002060020154600960008973ffffffffffffffffffffffffffffffffffffffff1673ffffffffffffffffffffffffffffffffffffffff168152602001908152602001600020600301548280548060200260200160405190810160405280929190818152602001828054801561189657602002820191906000526020600020905b8160009054906101000a900473ffffffffffffffffffffffffffffffffffffffff1673ffffffffffffffffffffffffffffffffffffffff168152602001906001019080831161184c575b5050505050925093509350935093509193509193565b60006118b9848484613134565b61197a846118c5612ead565b61197585604051806060016040528060288152602001613d7760289139600160008b73ffffffffffffffffffffffffffffffffffffffff1673ffffffffffffffffffffffffffffffffffffffff168152602001908152602001600020600061192b612ead565b73ffffffffffffffffffffffffffffffffffffffff1673ffffffffffffffffffffffffffffffffffffffff168152602001908152602001600020546133ea9092919063ffffffff16565b612eb5565b600190509392505050565b81600073ffffffffffffffffffffffffffffffffffffffff16600960008373ffffffffffffffffffffffffffffffffffffffff1673ffffffffffffffffffffffffffffffffffffffff16815260200190815260200160002060000160009054906101000a900473ffffffffffffffffffffffffffffffffffffffff1673ffffffffffffffffffffffffffffffffffffffff161415611a8b576040517f08c379a00000000000000000000000000000000000000000000000000000000081526004018080602001828103825260168152602001807f55736572206973206e6f7420726567697374657265640000000000000000000081525060200191505060405180910390fd5b8160001515600a60008373ffffffffffffffffffffffffffffffffffffffff1673ffffffffffffffffffffffffffffffffffffffff16815260200190815260200160002060030160009054906101000a900460ff16151514611b55576040517f08c379a00000000000000000000000000000000000000000000000000000000081526004018080602001828103825260188152602001807f546f6f6c20697320616c72656164792061737369676e6564000000000000000081525060200191505060405180910390fd5b6001600a60008573ffffffffffffffffffffffffffffffffffffffff1673ffffffffffffffffffffffffffffffffffffffff16815260200190815260200160002060030160006101000a81548160ff02191690831515021790555083600a60008573ffffffffffffffffffffffffffffffffffffffff1673ffffffffffffffffffffffffffffffffffffffff16815260200190815260200160002060030160016101000a81548173ffffffffffffffffffffffffffffffffffffffff021916908373ffffffffffffffffffffffffffffffffffffffff160217905550600960008573ffffffffffffffffffffffffffffffffffffffff1673ffffffffffffffffffffffffffffffffffffffff1681526020019081526020016000206001018390806001815401808255809150509060018203906000526020600020016000909192909190916101000a81548173ffffffffffffffffffffffffffffffffffffffff021916908373ffffffffffffffffffffffffffffffffffffffff160217905550507fc052f4fef57bdd2c4b5bc8657a30546533c71a9bee16916e3f9c9ada67c38ccd8484604051808373ffffffffffffffffffffffffffffffffffffffff1673ffffffffffffffffffffffffffffffffffffffff1681526020018273ffffffffffffffffffffffffffffffffffffffff1673ffffffffffffffffffffffffffffffffffffffff1681526020019250505060405180910390a150505050565b33600073ffffffffffffffffffffffffffffffffffffffff16600960008373ffffffffffffffffffffffffffffffffffffffff1673ffffffffffffffffffffffffffffffffffffffff16815260200190815260200160002060000160009054906101000a900473ffffffffffffffffffffffffffffffffffffffff1673ffffffffffffffffffffffffffffffffffffffff161415611e7a576040517f08c379a00000000000000000000000000000000000000000000000000000000081526004018080602001828103825260168152602001807f55736572206973206e6f7420726567697374657265640000000000000000000081525060200191505060405180910390fd5b6000611e8533612b1d565b905082811015611efd576040517f08c379a000000000000000000000000000000000000000000000000000000000815260040180806020018281038252601d8152602001807f546f6b656e42616c616e6365206e6f74206c6172676520656e6f75676800000081525060200191505060405180910390fd5b601460ff16600960003373ffffffffffffffffffffffffffffffffffffffff1673ffffffffffffffffffffffffffffffffffffffff168152602001908152602001600020600301541115611f9c576040517f08c379a000000000000000000000000000000000000000000000000000000000815260040180806020018281038252602d815260200180613d03602d913960400191505060405180910390fd5b611fa633846134aa565b6000611fbc60648561366290919063ffffffff16565b905061201381600960003373ffffffffffffffffffffffffffffffffffffffff1673ffffffffffffffffffffffffffffffffffffffff168152602001908152602001600020600301546130ac90919063ffffffff16565b507f61e8321aa270710f03a54e4ebf94a079e613de1da64022c29910b3bda2c7de073382604051808373ffffffffffffffffffffffffffffffffffffffff1673ffffffffffffffffffffffffffffffffffffffff1681526020018281526020019250505060405180910390a150505050565b60065481565b600560009054906101000a900460ff1681565b60006121476120ab612ead565b8461214285600160006120bc612ead565b73ffffffffffffffffffffffffffffffffffffffff1673ffffffffffffffffffffffffffffffffffffffff16815260200190815260200160002060008973ffffffffffffffffffffffffffffffffffffffff1673ffffffffffffffffffffffffffffffffffffffff168152602001908152602001600020546130ac90919063ffffffff16565b612eb5565b6001905092915050565b61215a33610a96565b6121cc576040517f08c379a000000000000000000000000000000000000000000000000000000000815260040180806020018281038252601d8152602001807f73656e646572206973206e6f7420612048696c7469206163636f756e7400000081525060200191505060405180910390fd5b80600073ffffffffffffffffffffffffffffffffffffffff16600a60008373ffffffffffffffffffffffffffffffffffffffff1673ffffffffffffffffffffffffffffffffffffffff16815260200190815260200160002060000160009054906101000a900473ffffffffffffffffffffffffffffffffffffffff1673ffffffffffffffffffffffffffffffffffffffff1614156122d2576040517f08c379a00000000000000000000000000000000000000000000000000000000081526004018080602001828103825260168152602001807f546f6f6c206973206e6f7420726567697374657265640000000000000000000081525060200191505060405180910390fd5b60001515600a60008473ffffffffffffffffffffffffffffffffffffffff1673ffffffffffffffffffffffffffffffffffffffff16815260200190815260200160002060030160159054906101000a900460ff1615151461237e576040517f08c379a0000000000000000000000000000000000000000000000000000000008152600401808060200182810382526026815260200180613e7b6026913960400191505060405180910390fd5b6001600a60008473ffffffffffffffffffffffffffffffffffffffff1673ffffffffffffffffffffffffffffffffffffffff16815260200190815260200160002060030160156101000a81548160ff0219169083151502179055507f6b411be2f5528c2eae069f78b4e68c06bd8d274e36927b635f60ebc3c349480582604051808273ffffffffffffffffffffffffffffffffffffffff1673ffffffffffffffffffffffffffffffffffffffff16815260200191505060405180910390a15050565b61244933610a96565b6124bb576040517f08c379a000000000000000000000000000000000000000000000000000000000815260040180806020018281038252601d8152602001807f73656e646572206973206e6f7420612048696c7469206163636f756e7400000081525060200191505060405180910390fd5b6040518060c001604052808273ffffffffffffffffffffffffffffffffffffffff16815260200160006040519080825280602002602001820160405280156125125781602001602082028038833980820191505090505b50815260200160006040519080825280602002602001820160405280156125485781602001602082028038833980820191505090505b508152602001600015158152602001600073ffffffffffffffffffffffffffffffffffffffff16815260200160001515815250600a60008373ffffffffffffffffffffffffffffffffffffffff1673ffffffffffffffffffffffffffffffffffffffff16815260200190815260200160002060008201518160000160006101000a81548173ffffffffffffffffffffffffffffffffffffffff021916908373ffffffffffffffffffffffffffffffffffffffff160217905550602082015181600101908051906020019061261d929190613a34565b50604082015181600201908051906020019061263a929190613a34565b5060608201518160030160006101000a81548160ff02191690831515021790555060808201518160030160016101000a81548173ffffffffffffffffffffffffffffffffffffffff021916908373ffffffffffffffffffffffffffffffffffffffff16021790555060a08201518160030160156101000a81548160ff02191690831515021790555090505050565b6126d133610a96565b612743576040517f08c379a000000000000000000000000000000000000000000000000000000000815260040180806020018281038252601d8152602001807f73656e646572206973206e6f7420612048696c7469206163636f756e7400000081525060200191505060405180910390fd5b60405180608001604052808273ffffffffffffffffffffffffffffffffffffffff168152602001600060405190808252806020026020018201604052801561279a5781602001602082028038833980820191505090505b508152602001600081526020016000815250600960008373ffffffffffffffffffffffffffffffffffffffff1673ffffffffffffffffffffffffffffffffffffffff16815260200190815260200160002060008201518160000160006101000a81548173ffffffffffffffffffffffffffffffffffffffff021916908373ffffffffffffffffffffffffffffffffffffffff160217905550602082015181600101908051906020019061284e929190613a81565b50604082015181600201556060820151816003015590505050565b33600073ffffffffffffffffffffffffffffffffffffffff16600960008373ffffffffffffffffffffffffffffffffffffffff1673ffffffffffffffffffffffffffffffffffffffff16815260200190815260200160002060000160009054906101000a900473ffffffffffffffffffffffffffffffffffffffff1673ffffffffffffffffffffffffffffffffffffffff16141561296f576040517f08c379a00000000000000000000000000000000000000000000000000000000081526004018080602001828103825260168152602001807f55736572206973206e6f7420726567697374657265640000000000000000000081525060200191505060405180910390fd5b6000600960003373ffffffffffffffffffffffffffffffffffffffff1673ffffffffffffffffffffffffffffffffffffffff168152602001908152602001600020600201541415612a0b576040517f08c379a0000000000000000000000000000000000000000000000000000000008152600401808060200182810382526027815260200180613cdc6027913960400191505060405180910390fd5b6000600960003373ffffffffffffffffffffffffffffffffffffffff1673ffffffffffffffffffffffffffffffffffffffff168152602001908152602001600020600201549050600960003373ffffffffffffffffffffffffffffffffffffffff1673ffffffffffffffffffffffffffffffffffffffff16815260200190815260200160002060020160009055612aa233826136ac565b7fc43f04673d564535fa7c6ab048cc307f5b297086158607f0ee512091852336c33382604051808373ffffffffffffffffffffffffffffffffffffffff1673ffffffffffffffffffffffffffffffffffffffff1681526020018281526020019250505060405180910390a15050565b6000600160ff16905090565b60008060008373ffffffffffffffffffffffffffffffffffffffff1673ffffffffffffffffffffffffffffffffffffffff168152602001908152602001600020549050919050565b60048054600181600116156101000203166002900480601f016020809104026020016040519081016040528092919081815260200182805460018160011615610100020316600290048015612bfb5780601f10612bd057610100808354040283529160200191612bfb565b820191906000526020600020905b815481529060010190602001808311612bde57829003601f168201915b505050505081565b6000612cc6612c10612ead565b84612cc185604051806060016040528060258152602001613e566025913960016000612c3a612ead565b73ffffffffffffffffffffffffffffffffffffffff1673ffffffffffffffffffffffffffffffffffffffff16815260200190815260200160002060008a73ffffffffffffffffffffffffffffffffffffffff1673ffffffffffffffffffffffffffffffffffffffff168152602001908152602001600020546133ea9092919063ffffffff16565b612eb5565b6001905092915050565b6000612ce4612cdd612ead565b8484613134565b6001905092915050565b6000600160008473ffffffffffffffffffffffffffffffffffffffff1673ffffffffffffffffffffffffffffffffffffffff16815260200190815260200160002060008373ffffffffffffffffffffffffffffffffffffffff1673ffffffffffffffffffffffffffffffffffffffff16815260200190815260200160002054905092915050565b612d8981600761386790919063ffffffff16565b8073ffffffffffffffffffffffffffffffffffffffff167f5d5dda5b73c8f1af11ce2d27f2d63ebb3cac1cf4cef2c4e339afb3d674479a7760405160405180910390a250565b60008073ffffffffffffffffffffffffffffffffffffffff168273ffffffffffffffffffffffffffffffffffffffff161415612e56576040517f08c379a0000000000000000000000000000000000000000000000000000000008152600401808060200182810382526022815260200180613dca6022913960400191505060405180910390fd5b8260000160008373ffffffffffffffffffffffffffffffffffffffff1673ffffffffffffffffffffffffffffffffffffffff16815260200190815260200160002060009054906101000a900460ff16905092915050565b600033905090565b600073ffffffffffffffffffffffffffffffffffffffff168373ffffffffffffffffffffffffffffffffffffffff161415612f3b576040517f08c379a0000000000000000000000000000000000000000000000000000000008152600401808060200182810382526024815260200180613e326024913960400191505060405180910390fd5b600073ffffffffffffffffffffffffffffffffffffffff168273ffffffffffffffffffffffffffffffffffffffff161415612fc1576040517f08c379a0000000000000000000000000000000000000000000000000000000008152600401808060200182810382526022815260200180613cba6022913960400191505060405180910390fd5b80600160008573ffffffffffffffffffffffffffffffffffffffff1673ffffffffffffffffffffffffffffffffffffffff16815260200190815260200160002060008473ffffffffffffffffffffffffffffffffffffffff1673ffffffffffffffffffffffffffffffffffffffff168152602001908152602001600020819055508173ffffffffffffffffffffffffffffffffffffffff168373ffffffffffffffffffffffffffffffffffffffff167f8c5be1e5ebec7d5bd14f71427d1e84f3dd0314c0f7b2291e5b200ac8c7c3b925836040518082815260200191505060405180910390a3505050565b60008082840190508381101561312a576040517f08c379a000000000000000000000000000000000000000000000000000000000815260040180806020018281038252601b8152602001807f536166654d6174683a206164646974696f6e206f766572666c6f77000000000081525060200191505060405180910390fd5b8091505092915050565b600073ffffffffffffffffffffffffffffffffffffffff168373ffffffffffffffffffffffffffffffffffffffff1614156131ba576040517f08c379a0000000000000000000000000000000000000000000000000000000008152600401808060200182810382526025815260200180613e0d6025913960400191505060405180910390fd5b600073ffffffffffffffffffffffffffffffffffffffff168273ffffffffffffffffffffffffffffffffffffffff161415613240576040517f08c379a0000000000000000000000000000000000000000000000000000000008152600401808060200182810382526023815260200180613c756023913960400191505060405180910390fd5b6132ab81604051806060016040528060268152602001613d30602691396000808773ffffffffffffffffffffffffffffffffffffffff1673ffffffffffffffffffffffffffffffffffffffff168152602001908152602001600020546133ea9092919063ffffffff16565b6000808573ffffffffffffffffffffffffffffffffffffffff1673ffffffffffffffffffffffffffffffffffffffff1681526020019081526020016000208190555061333e816000808573ffffffffffffffffffffffffffffffffffffffff1673ffffffffffffffffffffffffffffffffffffffff168152602001908152602001600020546130ac90919063ffffffff16565b6000808473ffffffffffffffffffffffffffffffffffffffff1673ffffffffffffffffffffffffffffffffffffffff168152602001908152602001600020819055508173ffffffffffffffffffffffffffffffffffffffff168373ffffffffffffffffffffffffffffffffffffffff167fddf252ad1be2c89b69c2b068fc378daa952ba7f163c4a11628f55a4df523b3ef836040518082815260200191505060405180910390a3505050565b6000838311158290613497576040517f08c379a00000000000000000000000000000000000000000000000000000000081526004018080602001828103825283818151815260200191508051906020019080838360005b8381101561345c578082015181840152602081019050613441565b50505050905090810190601f1680156134895780820380516001836020036101000a031916815260200191505b509250505060405180910390fd5b5060008385039050809150509392505050565b600073ffffffffffffffffffffffffffffffffffffffff168273ffffffffffffffffffffffffffffffffffffffff161415613530576040517f08c379a0000000000000000000000000000000000000000000000000000000008152600401808060200182810382526021815260200180613dec6021913960400191505060405180910390fd5b61359b81604051806060016040528060228152602001613c98602291396000808673ffffffffffffffffffffffffffffffffffffffff1673ffffffffffffffffffffffffffffffffffffffff168152602001908152602001600020546133ea9092919063ffffffff16565b6000808473ffffffffffffffffffffffffffffffffffffffff1673ffffffffffffffffffffffffffffffffffffffff168152602001908152602001600020819055506135f28160025461392490919063ffffffff16565b600281905550600073ffffffffffffffffffffffffffffffffffffffff168273ffffffffffffffffffffffffffffffffffffffff167fddf252ad1be2c89b69c2b068fc378daa952ba7f163c4a11628f55a4df523b3ef836040518082815260200191505060405180910390a35050565b60006136a483836040518060400160405280601a81526020017f536166654d6174683a206469766973696f6e206279207a65726f00000000000081525061396e565b905092915050565b600073ffffffffffffffffffffffffffffffffffffffff168273ffffffffffffffffffffffffffffffffffffffff16141561374f576040517f08c379a000000000000000000000000000000000000000000000000000000000815260040180806020018281038252601f8152602001807f45524332303a206d696e7420746f20746865207a65726f20616464726573730081525060200191505060405180910390fd5b613764816002546130ac90919063ffffffff16565b6002819055506137bb816000808573ffffffffffffffffffffffffffffffffffffffff1673ffffffffffffffffffffffffffffffffffffffff168152602001908152602001600020546130ac90919063ffffffff16565b6000808473ffffffffffffffffffffffffffffffffffffffff1673ffffffffffffffffffffffffffffffffffffffff168152602001908152602001600020819055508173ffffffffffffffffffffffffffffffffffffffff16600073ffffffffffffffffffffffffffffffffffffffff167fddf252ad1be2c89b69c2b068fc378daa952ba7f163c4a11628f55a4df523b3ef836040518082815260200191505060405180910390a35050565b6138718282612dcf565b6138c6576040517f08c379a0000000000000000000000000000000000000000000000000000000008152600401808060200182810382526021815260200180613d566021913960400191505060405180910390fd5b60008260000160008373ffffffffffffffffffffffffffffffffffffffff1673ffffffffffffffffffffffffffffffffffffffff16815260200190815260200160002060006101000a81548160ff0219169083151502179055505050565b600061396683836040518060400160405280601e81526020017f536166654d6174683a207375627472616374696f6e206f766572666c6f7700008152506133ea565b905092915050565b60008083118290613a1a576040517f08c379a00000000000000000000000000000000000000000000000000000000081526004018080602001828103825283818151815260200191508051906020019080838360005b838110156139df5780820151818401526020810190506139c4565b50505050905090810190601f168015613a0c5780820380516001836020036101000a031916815260200191505b509250505060405180910390fd5b506000838581613a2657fe5b049050809150509392505050565b828054828255906000526020600020908101928215613a70579160200282015b82811115613a6f578251825591602001919060010190613a54565b5b509050613a7d9190613b0b565b5090565b828054828255906000526020600020908101928215613afa579160200282015b82811115613af95782518260006101000a81548173ffffffffffffffffffffffffffffffffffffffff021916908373ffffffffffffffffffffffffffffffffffffffff16021790555091602001919060010190613aa1565b5b509050613b079190613b30565b5090565b613b2d91905b80821115613b29576000816000905550600101613b11565b5090565b90565b613b7091905b80821115613b6c57600081816101000a81549073ffffffffffffffffffffffffffffffffffffffff021916905550600101613b36565b5090565b90565b613b7d8282612dcf565b15613bf0576040517f08c379a000000000000000000000000000000000000000000000000000000000815260040180806020018281038252601f8152602001807f526f6c65733a206163636f756e7420616c72656164792068617320726f6c650081525060200191505060405180910390fd5b60018260000160008373ffffffffffffffffffffffffffffffffffffffff1673ffffffffffffffffffffffffffffffffffffffff16815260200190815260200160002060006101000a81548160ff021916908315150217905550505056fe5468697320746f6f6c20646f6573206e6f74207265717565737420646174612075706c6f616445524332303a207472616e7366657220746f20746865207a65726f206164647265737345524332303a206275726e20616d6f756e7420657863656564732062616c616e636545524332303a20617070726f766520746f20746865207a65726f20616464726573734e6f20616d6f756e742077617320637265646974656420746f20796f757220616464726573732e596f752061726520616c726561647920617420746865206d6178696d756d20646973636f756e74206c6576656c45524332303a207472616e7366657220616d6f756e7420657863656564732062616c616e6365526f6c65733a206163636f756e7420646f6573206e6f74206861766520726f6c6545524332303a207472616e7366657220616d6f756e74206578636565647320616c6c6f77616e63655468697320746f6f6c206973206e6f742072656769737465726564206f6e20796f7572206163636f756e74526f6c65733a206163636f756e7420697320746865207a65726f206164647265737345524332303a206275726e2066726f6d20746865207a65726f206164647265737345524332303a207472616e736665722066726f6d20746865207a65726f206164647265737345524332303a20617070726f76652066726f6d20746865207a65726f206164647265737345524332303a2064656372656173656420616c6c6f77616e63652062656c6f77207a65726f5468697320746f6f6c20616c726561647920726571756972657320646174612075706c6f6164a265627a7a723158205115fbe1beaf7734db32efcdc73c0e6ab769d797e3a36b17ebb6bf4e917afa3264736f6c634300050c0032526f6c65733a206163636f756e7420697320746865207a65726f2061646472657373",
  "source": "pragma solidity ^0.5.0;\r\n\r\nimport \"../client/node_modules/openzeppelin-solidity/contracts/math/SafeMath.sol\";\r\n\r\n//Import role contracts to use its modifiers\r\nimport \"./HiltiRole.sol\";\r\n\r\n//Import HiltiToken contract to use its functions\r\nimport \"./HiltiToken.sol\";\r\n\r\ncontract HiltiContract is HiltiToken, HiltiRole {\r\n    using SafeMath for uint256;\r\n\r\n    /********************************************************************************************/\r\n    /*                                       DATA VARIABLES                                     */\r\n    /********************************************************************************************/\r\n\r\n    address private contractOwner;                   //Contract Owner\r\n    uint8 private constant TOKEN_AMOUNT = 1;         //Amount of Hilti Tokens a user receives per upload\r\n    uint8 private constant MAXIMUM_DISCOUNT = 20;    //Maximum Discount\r\n\r\n    struct UserData {\r\n        address userAccount;\r\n        address[] toolList;         //List of registered Tools for this users\r\n        uint256 creditedAmount;     //HiltiToken Balance\r\n        uint256 currentDiscount;    //HiltiDiscount\r\n    }\r\n\r\n    struct ToolData {\r\n        address toolAccount;\r\n        uint256[] usageTime;        //List of usageTime\r\n        uint256[] timeStamps;        //List of Timestamps\r\n        bool isAssigned;          //To check whether tool is already assigned to a user\r\n        address userAccount;        //Assigned User\r\n        bool uploadRequest;         //To check whether data can be uploaded\r\n    }\r\n\r\n    mapping(address => UserData) userData;  // Mapping to store user related information\r\n    mapping(address => ToolData) toolData;  // Mapping to store tool related information\r\n\r\n    /********************************************************************************************/\r\n    /*                                       EVENT DEFINITIONS                                  */\r\n    /********************************************************************************************/\r\n\r\n    event ToolAssigned(address accountUser, address accountTool);\r\n    event DataUploaded(address accountUser, address accountTool, uint timeStamp, uint256 usageTime);\r\n    event UploadRequest(address accountTool);\r\n    event AccountCredited(address accountUser, uint256 amount);\r\n    event DiscountCredited(address accountUser, uint256 amount);\r\n    event HiltiTokenTransferred(address sender, address recipient, uint256 amount);\r\n\r\n    /********************************************************************************************/\r\n    /*                                       CONSTRUCTOR                                        */\r\n    /********************************************************************************************/\r\n\r\n    /**\r\n    * @dev Constructor\r\n    *      The deploying account becomes contractOwner\r\n    *      This needs to be a Hilti account!\r\n    */\r\n    constructor() public\r\n    {\r\n        //The account deploying the contract becomes the first Hilti account and the Owner of this contract\r\n        contractOwner = msg.sender;\r\n    }\r\n\r\n    /********************************************************************************************/\r\n    /*                                       FUNCTION MODIFIERS                                 */\r\n    /********************************************************************************************/\r\n\r\n\r\n    /**\r\n    * @dev Modifier that checks if a user is registered\r\n    */\r\n    modifier checkUser(address _userAddress)\r\n    {\r\n        require(userData[_userAddress].userAccount != address(0), \"User is not registered\");\r\n        _;\r\n    }\r\n\r\n    /**\r\n    * @dev Modifier that checks if a tool is registered\r\n    */\r\n    modifier checkTool(address _toolAddress)\r\n    {\r\n        require(toolData[_toolAddress].toolAccount != address(0), \"Tool is not registered\");\r\n        _;\r\n    }\r\n\r\n    /**\r\n    * @dev Modifier that checks if a tool is already registered for a user\r\n    */\r\n    modifier requireFreeTool(address _toolAddress)\r\n    {\r\n        require(toolData[_toolAddress].isAssigned == false, \"Tool is already assigned\");\r\n        _;\r\n    }\r\n\r\n    /********************************************************************************************/\r\n    /*                                       UTILITY FUNCTIONS                                  */\r\n    /********************************************************************************************/\r\n\r\n    /**\r\n    * @dev Add User - Only allowed by Hilti account\r\n    */\r\n    function addUser(address _account) public onlyHilti {\r\n        //check that not a hilit/tool addresse\r\n        //check that not already registered as user\r\n\r\n        //create struct entry for this user\r\n        userData[_account] = UserData({\r\n            userAccount: _account,\r\n            toolList: new address[](0),\r\n            creditedAmount: 0,\r\n            currentDiscount: 0\r\n        });\r\n    }\r\n\r\n    /**\r\n    * @dev Add Tool - Only allowed by Hilti account\r\n    */\r\n    function addTool(address _account) public onlyHilti {\r\n        //check that not a hilti/user address\r\n        //check that not already registered as tool\r\n\r\n        //create struct entry for this tool\r\n        toolData[_account] = ToolData({\r\n            toolAccount: _account,\r\n            usageTime: new uint256[](0),\r\n            timeStamps: new uint256[](0),\r\n            isAssigned: false,\r\n            userAccount: address(0),\r\n            uploadRequest: false\r\n        });\r\n    }\r\n\r\n    function get() public view returns (uint) {\r\n        return TOKEN_AMOUNT;\r\n    }\r\n\r\n    /********************************************************************************************/\r\n    /*                                     SMART CONTRACT FUNCTIONS                             */\r\n    /********************************************************************************************/\r\n\r\n    // function to add tool to user\r\n\r\n    /**\r\n    * @dev Register a tool for a certain user\r\n    */\r\n    function registerTool (\r\n                                address _accountUser,\r\n                                address _accountTool\r\n                            )\r\n                            public\r\n                            checkUser(_accountUser)\r\n                            requireFreeTool(_accountTool)\r\n    {\r\n        toolData[_accountTool].isAssigned = true;\r\n        toolData[_accountTool].userAccount = _accountUser;\r\n        userData[_accountUser].toolList.push(_accountTool);\r\n        emit ToolAssigned(_accountUser, _accountTool);\r\n    }\r\n\r\n    // TODO: function to remove tool from user\r\n\r\n    // TODO: function to request upload from user --> emit Event\r\n    // check if it is tool (directly fom tool? from Hilti account?)\r\n    /**\r\n    * @dev function to request upload from user --> emit Event\r\n    */\r\n    function requestUpload (\r\n                                address _accountTool\r\n                            )\r\n                            public\r\n                            onlyHilti\r\n                            checkTool(_accountTool)\r\n    {\r\n        //check if data upload not requested yet\r\n        require(toolData[_accountTool].uploadRequest == false, \"This tool already requires data upload\");\r\n        //save data to struct\r\n        toolData[_accountTool].uploadRequest = true;\r\n        //emit event\r\n        emit UploadRequest(_accountTool);\r\n    }\r\n\r\n\r\n    /**\r\n    * @dev upload tool data (by user), get token for it (mint 1 token)\r\n    */\r\n    function uploadData (\r\n                                address _accountTool,\r\n                                uint256 _usageTime\r\n                            )\r\n                            public\r\n                            checkUser(msg.sender)\r\n                            checkTool(_accountTool)\r\n    {\r\n        //check if right tool\r\n        require(toolData[_accountTool].userAccount == msg.sender, \"This tool is not registered on your account\");\r\n        //check if data needs to be uploaded\r\n        require(toolData[_accountTool].uploadRequest == true, \"This tool does not request data upload\");\r\n        //save data to struct\r\n        toolData[_accountTool].usageTime.push(_usageTime);\r\n        toolData[_accountTool].timeStamps.push(block.timestamp);\r\n        //credit Hilti Token_Amount to balance\r\n        userData[msg.sender].creditedAmount.add(TOKEN_AMOUNT);\r\n        //emit event\r\n        emit DataUploaded(msg.sender, _accountTool, block.timestamp, _usageTime);\r\n    }\r\n\r\n    /**\r\n    * @dev claim credited tokens\r\n    */\r\n    function claimTokens ()\r\n                            public\r\n                            checkUser(msg.sender)\r\n    {\r\n        //check if credited amount is >0\r\n        require(userData[msg.sender].creditedAmount != 0, \"No amount was credited to your address.\");\r\n        uint256 elegibleAmount = userData[msg.sender].creditedAmount;\r\n        //delete so he can not ask twice for crediting\r\n        delete userData[msg.sender].creditedAmount;\r\n        //mint Hilti token to the sender address\r\n        _mint(msg.sender, elegibleAmount);\r\n        //emit event\r\n        emit AccountCredited(msg.sender, elegibleAmount);\r\n    }\r\n\r\n    /**\r\n    * @dev transfer tokens to other address\r\n    */\r\n    function transferToken (\r\n                                address _recipient,\r\n                                uint256 _amount\r\n                            )\r\n                            public\r\n                            checkUser(msg.sender)\r\n                            checkUser(_recipient)\r\n    {\r\n        //check if token balance is >= _amount\r\n        uint256 tokenBalance = balanceOf(msg.sender);\r\n        require(tokenBalance >= _amount, \"TokenBalance not large enough\");\r\n        //transfer tokens\r\n        transfer(_recipient, _amount);\r\n        //emit event\r\n        emit HiltiTokenTransferred(msg.sender, _recipient, _amount);\r\n    }\r\n\r\n\r\n\r\n    /**\r\n    * @dev redeem discount by sending tokens (burning them)\r\n    */\r\n    function redeemDiscount (\r\n                                uint256 _amount\r\n                            )\r\n                            public\r\n                            checkUser(msg.sender)\r\n    {\r\n        //check if token balance is >= _amount\r\n        uint256 tokenBalance = balanceOf(msg.sender);\r\n        require(tokenBalance >= _amount, \"TokenBalance not large enough\");\r\n        //check if MAXIMUM_DISCOUNT is not reached\r\n        require(userData[msg.sender].currentDiscount <= MAXIMUM_DISCOUNT, \"You are already at the maximum discount level\");\r\n        //burn tokens\r\n        _burn(msg.sender, _amount);\r\n        //calculate discount to add in %\r\n        //TODO: do not hardcode this\r\n        uint256 eligibleDiscount = _amount.div(100);\r\n        //credit discount\r\n        userData[msg.sender].currentDiscount.add(eligibleDiscount);\r\n        //emit event\r\n        emit DiscountCredited(msg.sender, eligibleDiscount);\r\n    }\r\n\r\n    /**\r\n    * @dev Check user information\r\n    *\r\n    */\r\n    function fetchUserData\r\n                                (\r\n                                    address _account\r\n                                )\r\n                                public\r\n                                view\r\n                                returns(\r\n                                    address,\r\n                                    address[] memory,\r\n                                    uint256,\r\n                                    uint256\r\n                                )\r\n    {\r\n        return(\r\n            userData[_account].userAccount,\r\n            userData[_account].toolList,\r\n            userData[_account].creditedAmount,\r\n            userData[_account].currentDiscount\r\n        );\r\n    }\r\n\r\n    /**\r\n    * @dev Check tool information\r\n    *\r\n    */\r\n    function fetchToolData\r\n                                (\r\n                                    address _account\r\n                                )\r\n                                public\r\n                                view\r\n                                returns(\r\n                                    address,\r\n                                    uint256[] memory,\r\n                                    uint256[] memory,\r\n                                    bool,\r\n                                    address,\r\n                                    bool\r\n                                )\r\n    {\r\n        return(\r\n            toolData[_account].toolAccount,\r\n            toolData[_account].usageTime,\r\n            toolData[_account].timeStamps,\r\n            toolData[_account].isAssigned,\r\n            toolData[_account].userAccount,\r\n            toolData[_account].uploadRequest\r\n        );\r\n    }\r\n\r\n}",
  "sourcePath": "C:/WorkingSpace/Source/New IT Challenge/itChallenge2020/contracts/HiltiContract.sol",
  "compiler": {
    "name": "solc",
    "version": "0.5.12+commit.7709ece9.Emscripten.clang"
  },
  "schemaVersion": "3.0.19",
  "updatedAt": "2019-12-15T15:43:35.064Z",
  "networkType": "ethereum",
  "devdoc": {
    "methods": {
      "addTool(address)": {
        "details": "Add Tool - Only allowed by Hilti account"
      },
      "addUser(address)": {
        "details": "Add User - Only allowed by Hilti account"
      },
      "allowance(address,address)": {
        "details": "See {IERC20-allowance}."
      },
      "approve(address,uint256)": {
        "details": "See {IERC20-approve}.     * Requirements:     * - `spender` cannot be the zero address."
      },
      "balanceOf(address)": {
        "details": "See {IERC20-balanceOf}."
      },
      "claimTokens()": {
        "details": "claim credited tokens"
      },
      "constructor": {
        "details": "Constructor     The deploying account becomes contractOwner     This needs to be a Hilti account!"
      },
      "decreaseAllowance(address,uint256)": {
        "details": "Atomically decreases the allowance granted to `spender` by the caller.     * This is an alternative to {approve} that can be used as a mitigation for problems described in {IERC20-approve}.     * Emits an {Approval} event indicating the updated allowance.     * Requirements:     * - `spender` cannot be the zero address. - `spender` must have allowance for the caller of at least `subtractedValue`."
      },
      "fetchToolData(address)": {
        "details": "Check tool information     "
      },
      "fetchUserData(address)": {
        "details": "Check user information     "
      },
      "increaseAllowance(address,uint256)": {
        "details": "Atomically increases the allowance granted to `spender` by the caller.     * This is an alternative to {approve} that can be used as a mitigation for problems described in {IERC20-approve}.     * Emits an {Approval} event indicating the updated allowance.     * Requirements:     * - `spender` cannot be the zero address."
      },
      "redeemDiscount(uint256)": {
        "details": "redeem discount by sending tokens (burning them)"
      },
      "registerTool(address,address)": {
        "details": "Register a tool for a certain user"
      },
      "requestUpload(address)": {
        "details": "function to request upload from user --> emit Event"
      },
      "totalSupply()": {
        "details": "See {IERC20-totalSupply}."
      },
      "transfer(address,uint256)": {
        "details": "See {IERC20-transfer}.     * Requirements:     * - `recipient` cannot be the zero address. - the caller must have a balance of at least `amount`."
      },
      "transferFrom(address,address,uint256)": {
        "details": "See {IERC20-transferFrom}.     * Emits an {Approval} event indicating the updated allowance. This is not required by the EIP. See the note at the beginning of {ERC20};     * Requirements: - `sender` and `recipient` cannot be the zero address. - `sender` must have a balance of at least `amount`. - the caller must have allowance for `sender`'s tokens of at least `amount`."
      },
      "transferToken(address,uint256)": {
        "details": "transfer tokens to other address"
      },
      "uploadData(address,uint256)": {
        "details": "upload tool data (by user), get token for it (mint 1 token)"
      }
    }
  },
  "userdoc": {
    "methods": {}
  }
}