{
  "contractName": "HiltiRole",
  "abi": [
    {
      "inputs": [],
      "payable": false,
      "stateMutability": "nonpayable",
      "type": "constructor"
    },
    {
      "anonymous": false,
      "inputs": [
        {
          "indexed": true,
          "name": "account",
          "type": "address"
        }
      ],
      "name": "HiltiAdded",
      "type": "event"
    },
    {
      "anonymous": false,
      "inputs": [
        {
          "indexed": true,
          "name": "account",
          "type": "address"
        }
      ],
      "name": "HiltiRemoved",
      "type": "event"
    },
    {
      "constant": true,
      "inputs": [
        {
          "name": "account",
          "type": "address"
        }
      ],
      "name": "isHilti",
      "outputs": [
        {
          "name": "",
          "type": "bool"
        }
      ],
      "payable": false,
      "stateMutability": "view",
      "type": "function"
    },
    {
      "constant": false,
      "inputs": [],
      "name": "renouncHilti",
      "outputs": [],
      "payable": false,
      "stateMutability": "nonpayable",
      "type": "function"
    }
  ],
  "bytecode": "0x608060405234801561001057600080fd5b506100203361002560201b60201c565b610242565b61003d81600061008360201b6102be1790919060201c565b8073ffffffffffffffffffffffffffffffffffffffff167fc846bdb9eebcaecb800772b10fc39f9f0d434e2e797a40e9f0c28819131fda3d60405160405180910390a250565b610093828261016460201b60201c565b15610106576040517f08c379a000000000000000000000000000000000000000000000000000000000815260040180806020018281038252601f8152602001807f526f6c65733a206163636f756e7420616c72656164792068617320726f6c650081525060200191505060405180910390fd5b60018260000160008373ffffffffffffffffffffffffffffffffffffffff1673ffffffffffffffffffffffffffffffffffffffff16815260200190815260200160002060006101000a81548160ff0219169083151502179055505050565b60008073ffffffffffffffffffffffffffffffffffffffff168273ffffffffffffffffffffffffffffffffffffffff1614156101eb576040517f08c379a00000000000000000000000000000000000000000000000000000000081526004018080602001828103825260228152602001806106596022913960400191505060405180910390fd5b8260000160008373ffffffffffffffffffffffffffffffffffffffff1673ffffffffffffffffffffffffffffffffffffffff16815260200190815260200160002060009054906101000a900460ff16905092915050565b610408806102516000396000f3fe608060405234801561001057600080fd5b50600436106100365760003560e01c8063051817ca1461003b5780630661a28e14610045575b600080fd5b6100436100a1565b005b6100876004803603602081101561005b57600080fd5b81019080803573ffffffffffffffffffffffffffffffffffffffff1690602001909291905050506100ac565b604051808215151515815260200191505060405180910390f35b6100aa336100c9565b565b60006100c282600061012390919063ffffffff16565b9050919050565b6100dd81600061020190919063ffffffff16565b8073ffffffffffffffffffffffffffffffffffffffff167f5d5dda5b73c8f1af11ce2d27f2d63ebb3cac1cf4cef2c4e339afb3d674479a7760405160405180910390a250565b60008073ffffffffffffffffffffffffffffffffffffffff168273ffffffffffffffffffffffffffffffffffffffff1614156101aa576040517f08c379a00000000000000000000000000000000000000000000000000000000081526004018080602001828103825260228152602001806103bb6022913960400191505060405180910390fd5b8260000160008373ffffffffffffffffffffffffffffffffffffffff1673ffffffffffffffffffffffffffffffffffffffff16815260200190815260200160002060009054906101000a900460ff16905092915050565b61020b8282610123565b610260576040517f08c379a000000000000000000000000000000000000000000000000000000000815260040180806020018281038252602181526020018061039a6021913960400191505060405180910390fd5b60008260000160008373ffffffffffffffffffffffffffffffffffffffff1673ffffffffffffffffffffffffffffffffffffffff16815260200190815260200160002060006101000a81548160ff0219169083151502179055505050565b6102c88282610123565b1561033b576040517f08c379a000000000000000000000000000000000000000000000000000000000815260040180806020018281038252601f8152602001807f526f6c65733a206163636f756e7420616c72656164792068617320726f6c650081525060200191505060405180910390fd5b60018260000160008373ffffffffffffffffffffffffffffffffffffffff1673ffffffffffffffffffffffffffffffffffffffff16815260200190815260200160002060006101000a81548160ff021916908315150217905550505056fe526f6c65733a206163636f756e7420646f6573206e6f74206861766520726f6c65526f6c65733a206163636f756e7420697320746865207a65726f2061646472657373a165627a7a72305820175cdd8eacdb07587303d14c32be0e80b0e3cad7d61a76be53eae41764e33c090029526f6c65733a206163636f756e7420697320746865207a65726f2061646472657373",
  "source": "pragma solidity ^0.5.0;\n\n// Import 'Roles' from OpenZeppelin:\nimport \"../client/node_modules/openzeppelin-solidity/contracts/access/Roles.sol\";\n\n// Define a contract 'HiltiRole' to manage this role - add, remove, check\ncontract HiltiRole {\n  using Roles for Roles.Role;\n\n  // Events, one for Adding, and other for Removing\n  event HiltiAdded(address indexed account);\n  event HiltiRemoved(address indexed account);\n\n  // Defining a struct 'hilti' by inheriting from 'Roles' library, struct Role\n  Roles.Role private hilti_accounts;\n\n  // In the constructor make the address that deploys this contract the 1st Hilti Account\n  constructor() public {\n    _addHilti(msg.sender);\n  }\n\n  // Defining a modifier that checks to see if msg.sender has the appropriate role\n  modifier onlyHilti() {\n    require(isHilti(msg.sender), \"sender is not a Hilti account\");\n    _;\n  }\n\n  // Define a function 'isHilti' to check this role\n  function isHilti(address account) public view returns (bool) {\n    return hilti_accounts.has(account);\n  }\n\n  // Define a function 'addHilti' that adds this role --> in HiltiContract because it need onlyHilti modifier!\n  /*function addHilti(address account) public {\n    _addHilti(account);\n  }*/\n\n  // Define a function 'renounceHilti' to renounce this role\n  function renouncHilti() public {\n    _removeHilti(msg.sender);\n  }\n\n  // Define an internal function '_addHilti' to add this role, called by 'addHilti'\n  function _addHilti(address account) internal {\n    hilti_accounts.add(account);\n    emit HiltiAdded(account);\n  }\n\n  // Define an internal function '_removeHilti' to remove this role, called by 'removeHilti'\n  function _removeHilti(address account) internal {\n    hilti_accounts.remove(account);\n    emit HiltiRemoved(account);\n  }\n}",
  "sourcePath": "/Users/jenshunhevicz/Documents/GitHub/itChallenge2020/contracts/HiltiRole.sol",
  "compiler": {
    "name": "solc",
    "version": "0.5.8+commit.23d335f2.Emscripten.clang"
  },
  "schemaVersion": "3.0.16",
  "updatedAt": "2020-02-11T07:01:28.182Z",
  "devdoc": {
    "methods": {}
  },
  "userdoc": {
    "methods": {}
  }
}