{
  "contractName": "HiltiContract",
  "abi": [
    {
      "inputs": [],
      "payable": false,
      "stateMutability": "nonpayable",
      "type": "constructor"
    },
    {
      "anonymous": false,
      "inputs": [
        {
          "indexed": false,
          "internalType": "address",
          "name": "accountUser",
          "type": "address"
        },
        {
          "indexed": false,
          "internalType": "uint256",
          "name": "amount",
          "type": "uint256"
        }
      ],
      "name": "AccountCredited",
      "type": "event"
    },
    {
      "anonymous": false,
      "inputs": [
        {
          "indexed": true,
          "internalType": "address",
          "name": "owner",
          "type": "address"
        },
        {
          "indexed": true,
          "internalType": "address",
          "name": "spender",
          "type": "address"
        },
        {
          "indexed": false,
          "internalType": "uint256",
          "name": "value",
          "type": "uint256"
        }
      ],
      "name": "Approval",
      "type": "event"
    },
    {
      "anonymous": false,
      "inputs": [
        {
          "indexed": false,
          "internalType": "address",
          "name": "accountUser",
          "type": "address"
        },
        {
          "indexed": false,
          "internalType": "address",
          "name": "accountTool",
          "type": "address"
        },
        {
          "indexed": false,
          "internalType": "uint256",
          "name": "timeStamp",
          "type": "uint256"
        },
        {
          "indexed": false,
          "internalType": "uint256",
          "name": "usageTime",
          "type": "uint256"
        }
      ],
      "name": "DataUploaded",
      "type": "event"
    },
    {
      "anonymous": false,
      "inputs": [
        {
          "indexed": false,
          "internalType": "address",
          "name": "accountUser",
          "type": "address"
        },
        {
          "indexed": false,
          "internalType": "uint256",
          "name": "amount",
          "type": "uint256"
        }
      ],
      "name": "DiscountCredited",
      "type": "event"
    },
    {
      "anonymous": false,
      "inputs": [
        {
          "indexed": true,
          "internalType": "address",
          "name": "account",
          "type": "address"
        }
      ],
      "name": "HiltiAdded",
      "type": "event"
    },
    {
      "anonymous": false,
      "inputs": [
        {
          "indexed": true,
          "internalType": "address",
          "name": "account",
          "type": "address"
        }
      ],
      "name": "HiltiRemoved",
      "type": "event"
    },
    {
      "anonymous": false,
      "inputs": [
        {
          "indexed": false,
          "internalType": "address",
          "name": "sender",
          "type": "address"
        },
        {
          "indexed": false,
          "internalType": "address",
          "name": "recipient",
          "type": "address"
        },
        {
          "indexed": false,
          "internalType": "uint256",
          "name": "amount",
          "type": "uint256"
        }
      ],
      "name": "HiltiTokenTransferred",
      "type": "event"
    },
    {
      "anonymous": false,
      "inputs": [
        {
          "indexed": false,
          "internalType": "address",
          "name": "accountUser",
          "type": "address"
        },
        {
          "indexed": false,
          "internalType": "address",
          "name": "accountTool",
          "type": "address"
        }
      ],
      "name": "ToolAssigned",
      "type": "event"
    },
    {
      "anonymous": false,
      "inputs": [
        {
          "indexed": true,
          "internalType": "address",
          "name": "from",
          "type": "address"
        },
        {
          "indexed": true,
          "internalType": "address",
          "name": "to",
          "type": "address"
        },
        {
          "indexed": false,
          "internalType": "uint256",
          "name": "value",
          "type": "uint256"
        }
      ],
      "name": "Transfer",
      "type": "event"
    },
    {
      "anonymous": false,
      "inputs": [
        {
          "indexed": false,
          "internalType": "address",
          "name": "accountTool",
          "type": "address"
        }
      ],
      "name": "UploadRequest",
      "type": "event"
    },
    {
      "constant": true,
      "inputs": [],
      "name": "INITIAL_SUPPLY",
      "outputs": [
        {
          "internalType": "uint256",
          "name": "",
          "type": "uint256"
        }
      ],
      "payable": false,
      "stateMutability": "view",
      "type": "function"
    },
    {
      "constant": true,
      "inputs": [
        {
          "internalType": "address",
          "name": "owner",
          "type": "address"
        },
        {
          "internalType": "address",
          "name": "spender",
          "type": "address"
        }
      ],
      "name": "allowance",
      "outputs": [
        {
          "internalType": "uint256",
          "name": "",
          "type": "uint256"
        }
      ],
      "payable": false,
      "stateMutability": "view",
      "type": "function"
    },
    {
      "constant": false,
      "inputs": [
        {
          "internalType": "address",
          "name": "spender",
          "type": "address"
        },
        {
          "internalType": "uint256",
          "name": "amount",
          "type": "uint256"
        }
      ],
      "name": "approve",
      "outputs": [
        {
          "internalType": "bool",
          "name": "",
          "type": "bool"
        }
      ],
      "payable": false,
      "stateMutability": "nonpayable",
      "type": "function"
    },
    {
      "constant": true,
      "inputs": [
        {
          "internalType": "address",
          "name": "account",
          "type": "address"
        }
      ],
      "name": "balanceOf",
      "outputs": [
        {
          "internalType": "uint256",
          "name": "",
          "type": "uint256"
        }
      ],
      "payable": false,
      "stateMutability": "view",
      "type": "function"
    },
    {
      "constant": true,
      "inputs": [],
      "name": "decimals",
      "outputs": [
        {
          "internalType": "uint8",
          "name": "",
          "type": "uint8"
        }
      ],
      "payable": false,
      "stateMutability": "view",
      "type": "function"
    },
    {
      "constant": false,
      "inputs": [
        {
          "internalType": "address",
          "name": "spender",
          "type": "address"
        },
        {
          "internalType": "uint256",
          "name": "subtractedValue",
          "type": "uint256"
        }
      ],
      "name": "decreaseAllowance",
      "outputs": [
        {
          "internalType": "bool",
          "name": "",
          "type": "bool"
        }
      ],
      "payable": false,
      "stateMutability": "nonpayable",
      "type": "function"
    },
    {
      "constant": false,
      "inputs": [
        {
          "internalType": "address",
          "name": "spender",
          "type": "address"
        },
        {
          "internalType": "uint256",
          "name": "addedValue",
          "type": "uint256"
        }
      ],
      "name": "increaseAllowance",
      "outputs": [
        {
          "internalType": "bool",
          "name": "",
          "type": "bool"
        }
      ],
      "payable": false,
      "stateMutability": "nonpayable",
      "type": "function"
    },
    {
      "constant": true,
      "inputs": [
        {
          "internalType": "address",
          "name": "account",
          "type": "address"
        }
      ],
      "name": "isHilti",
      "outputs": [
        {
          "internalType": "bool",
          "name": "",
          "type": "bool"
        }
      ],
      "payable": false,
      "stateMutability": "view",
      "type": "function"
    },
    {
      "constant": true,
      "inputs": [],
      "name": "name",
      "outputs": [
        {
          "internalType": "string",
          "name": "",
          "type": "string"
        }
      ],
      "payable": false,
      "stateMutability": "view",
      "type": "function"
    },
    {
      "constant": false,
      "inputs": [],
      "name": "renouncHilti",
      "outputs": [],
      "payable": false,
      "stateMutability": "nonpayable",
      "type": "function"
    },
    {
      "constant": true,
      "inputs": [],
      "name": "symbol",
      "outputs": [
        {
          "internalType": "string",
          "name": "",
          "type": "string"
        }
      ],
      "payable": false,
      "stateMutability": "view",
      "type": "function"
    },
    {
      "constant": true,
      "inputs": [],
      "name": "totalSupply",
      "outputs": [
        {
          "internalType": "uint256",
          "name": "",
          "type": "uint256"
        }
      ],
      "payable": false,
      "stateMutability": "view",
      "type": "function"
    },
    {
      "constant": false,
      "inputs": [
        {
          "internalType": "address",
          "name": "recipient",
          "type": "address"
        },
        {
          "internalType": "uint256",
          "name": "amount",
          "type": "uint256"
        }
      ],
      "name": "transfer",
      "outputs": [
        {
          "internalType": "bool",
          "name": "",
          "type": "bool"
        }
      ],
      "payable": false,
      "stateMutability": "nonpayable",
      "type": "function"
    },
    {
      "constant": false,
      "inputs": [
        {
          "internalType": "address",
          "name": "sender",
          "type": "address"
        },
        {
          "internalType": "address",
          "name": "recipient",
          "type": "address"
        },
        {
          "internalType": "uint256",
          "name": "amount",
          "type": "uint256"
        }
      ],
      "name": "transferFrom",
      "outputs": [
        {
          "internalType": "bool",
          "name": "",
          "type": "bool"
        }
      ],
      "payable": false,
      "stateMutability": "nonpayable",
      "type": "function"
    },
    {
      "constant": false,
      "inputs": [
        {
          "internalType": "address",
          "name": "_account",
          "type": "address"
        },
        {
          "internalType": "string",
          "name": "_name",
          "type": "string"
        }
      ],
      "name": "addUser",
      "outputs": [],
      "payable": false,
      "stateMutability": "nonpayable",
      "type": "function"
    },
    {
      "constant": false,
      "inputs": [
        {
          "internalType": "address",
          "name": "_account",
          "type": "address"
        },
        {
          "internalType": "string",
          "name": "_name",
          "type": "string"
        }
      ],
      "name": "addTool",
      "outputs": [],
      "payable": false,
      "stateMutability": "nonpayable",
      "type": "function"
    },
    {
      "constant": true,
      "inputs": [],
      "name": "get",
      "outputs": [
        {
          "internalType": "uint256",
          "name": "",
          "type": "uint256"
        }
      ],
      "payable": false,
      "stateMutability": "view",
      "type": "function"
    },
    {
      "constant": false,
      "inputs": [
        {
          "internalType": "address",
          "name": "_accountUser",
          "type": "address"
        },
        {
          "internalType": "address",
          "name": "_accountTool",
          "type": "address"
        }
      ],
      "name": "registerTool",
      "outputs": [],
      "payable": false,
      "stateMutability": "nonpayable",
      "type": "function"
    },
    {
      "constant": false,
      "inputs": [
        {
          "internalType": "address",
          "name": "_accountTool",
          "type": "address"
        }
      ],
      "name": "requestUpload",
      "outputs": [],
      "payable": false,
      "stateMutability": "nonpayable",
      "type": "function"
    },
    {
      "constant": false,
      "inputs": [
        {
          "internalType": "address",
          "name": "_accountTool",
          "type": "address"
        },
        {
          "internalType": "uint256",
          "name": "_usageTime",
          "type": "uint256"
        }
      ],
      "name": "uploadData",
      "outputs": [],
      "payable": false,
      "stateMutability": "nonpayable",
      "type": "function"
    },
    {
      "constant": false,
      "inputs": [],
      "name": "claimTokens",
      "outputs": [],
      "payable": false,
      "stateMutability": "nonpayable",
      "type": "function"
    },
    {
      "constant": false,
      "inputs": [
        {
          "internalType": "address",
          "name": "_recipient",
          "type": "address"
        },
        {
          "internalType": "uint256",
          "name": "_amount",
          "type": "uint256"
        }
      ],
      "name": "transferTokens",
      "outputs": [],
      "payable": false,
      "stateMutability": "nonpayable",
      "type": "function"
    },
    {
      "constant": false,
      "inputs": [
        {
          "internalType": "uint256",
          "name": "_amount",
          "type": "uint256"
        }
      ],
      "name": "redeemDiscount",
      "outputs": [],
      "payable": false,
      "stateMutability": "nonpayable",
      "type": "function"
    },
    {
      "constant": true,
      "inputs": [
        {
          "internalType": "address",
          "name": "_account",
          "type": "address"
        }
      ],
      "name": "fetchUserData",
      "outputs": [
        {
          "internalType": "address",
          "name": "",
          "type": "address"
        },
        {
          "internalType": "address[]",
          "name": "",
          "type": "address[]"
        },
        {
          "internalType": "uint256",
          "name": "",
          "type": "uint256"
        },
        {
          "internalType": "uint256",
          "name": "",
          "type": "uint256"
        },
        {
          "internalType": "string",
          "name": "",
          "type": "string"
        }
      ],
      "payable": false,
      "stateMutability": "view",
      "type": "function"
    },
    {
      "constant": true,
      "inputs": [
        {
          "internalType": "address",
          "name": "_account",
          "type": "address"
        }
      ],
      "name": "fetchToolData",
      "outputs": [
        {
          "internalType": "address",
          "name": "",
          "type": "address"
        },
        {
          "internalType": "uint256[]",
          "name": "",
          "type": "uint256[]"
        },
        {
          "internalType": "uint256[]",
          "name": "",
          "type": "uint256[]"
        },
        {
          "internalType": "bool",
          "name": "",
          "type": "bool"
        },
        {
          "internalType": "address",
          "name": "",
          "type": "address"
        },
        {
          "internalType": "bool",
          "name": "",
          "type": "bool"
        },
        {
          "internalType": "string",
          "name": "",
          "type": "string"
        }
      ],
      "payable": false,
      "stateMutability": "view",
      "type": "function"
    }
  ],
  "bytecode": "0x60806040526040518060400160405280600a81526020017f48696c7469546f6b656e000000000000000000000000000000000000000000008152506003908051906020019062000051929190620005b3565b506040518060400160405280600581526020017f48494c5449000000000000000000000000000000000000000000000000000000815250600490805190602001906200009f929190620005b3565b506000600560006101000a81548160ff021916908360ff1602179055506000600655348015620000ce57600080fd5b50620000e3336006546200013b60201b60201c565b620000f4336200030560201b60201c565b33600860006101000a81548173ffffffffffffffffffffffffffffffffffffffff021916908373ffffffffffffffffffffffffffffffffffffffff16021790555062000662565b600073ffffffffffffffffffffffffffffffffffffffff168273ffffffffffffffffffffffffffffffffffffffff161415620001df576040517f08c379a000000000000000000000000000000000000000000000000000000000815260040180806020018281038252601f8152602001807f45524332303a206d696e7420746f20746865207a65726f20616464726573730081525060200191505060405180910390fd5b620001fb816002546200036660201b62003aa71790919060201c565b60028190555062000259816000808573ffffffffffffffffffffffffffffffffffffffff1673ffffffffffffffffffffffffffffffffffffffff168152602001908152602001600020546200036660201b62003aa71790919060201c565b6000808473ffffffffffffffffffffffffffffffffffffffff1673ffffffffffffffffffffffffffffffffffffffff168152602001908152602001600020819055508173ffffffffffffffffffffffffffffffffffffffff16600073ffffffffffffffffffffffffffffffffffffffff167fddf252ad1be2c89b69c2b068fc378daa952ba7f163c4a11628f55a4df523b3ef836040518082815260200191505060405180910390a35050565b62000320816007620003ef60201b62003fb01790919060201c565b8073ffffffffffffffffffffffffffffffffffffffff167fc846bdb9eebcaecb800772b10fc39f9f0d434e2e797a40e9f0c28819131fda3d60405160405180910390a250565b600080828401905083811015620003e5576040517f08c379a000000000000000000000000000000000000000000000000000000000815260040180806020018281038252601b8152602001807f536166654d6174683a206164646974696f6e206f766572666c6f77000000000081525060200191505060405180910390fd5b8091505092915050565b620004018282620004d360201b60201c565b1562000475576040517f08c379a000000000000000000000000000000000000000000000000000000000815260040180806020018281038252601f8152602001807f526f6c65733a206163636f756e7420616c72656164792068617320726f6c650081525060200191505060405180910390fd5b60018260000160008373ffffffffffffffffffffffffffffffffffffffff1673ffffffffffffffffffffffffffffffffffffffff16815260200190815260200160002060006101000a81548160ff0219169083151502179055505050565b60008073ffffffffffffffffffffffffffffffffffffffff168273ffffffffffffffffffffffffffffffffffffffff1614156200055c576040517f08c379a0000000000000000000000000000000000000000000000000000000008152600401808060200182810382526022815260200180620049846022913960400191505060405180910390fd5b8260000160008373ffffffffffffffffffffffffffffffffffffffff1673ffffffffffffffffffffffffffffffffffffffff16815260200190815260200160002060009054906101000a900460ff16905092915050565b828054600181600116156101000203166002900490600052602060002090601f016020900481019282601f10620005f657805160ff191683800117855562000627565b8280016001018555821562000627579182015b828111156200062657825182559160200191906001019062000609565b5b5090506200063691906200063a565b5090565b6200065f91905b808211156200065b57600081600090555060010162000641565b5090565b90565b61431280620006726000396000f3fe608060405234801561001057600080fd5b50600436106101735760003560e01c8063313ce567116100de57806370a0823111610097578063a9059cbb11610071578063a9059cbb14610a8a578063bec3fa1714610af0578063dd62ed3e14610b3e578063f5e95b0e14610bb657610173565b806370a082311461094957806395d89b41146109a1578063a457c2d714610a2457610173565b8063313ce56714610778578063395093511461079c5780633cd06afd1461080257806348c54b9d146108465780634b68d431146108505780636d4ce63c1461092b57610173565b80631b96b313116101305780631b96b313146104ae57806320ced446146104fc57806323b872dd1461064257806328ec9553146106c8578063298ff14b1461072c5780632ff2e9dc1461075a57610173565b8063051817ca146101785780630661a28e1461018257806306fdde03146101de578063095ea7b3146102615780630acd410e146102c757806318160ddd14610490575b600080fd5b610180610c91565b005b6101c46004803603602081101561019857600080fd5b81019080803573ffffffffffffffffffffffffffffffffffffffff169060200190929190505050610c9c565b604051808215151515815260200191505060405180910390f35b6101e6610cb9565b6040518080602001828103825283818151815260200191508051906020019080838360005b8381101561022657808201518184015260208101905061020b565b50505050905090810190601f1680156102535780820380516001836020036101000a031916815260200191505b509250505060405180910390f35b6102ad6004803603604081101561027757600080fd5b81019080803573ffffffffffffffffffffffffffffffffffffffff16906020019092919080359060200190929190505050610d57565b604051808215151515815260200191505060405180910390f35b610309600480360360208110156102dd57600080fd5b81019080803573ffffffffffffffffffffffffffffffffffffffff169060200190929190505050610d75565b604051808873ffffffffffffffffffffffffffffffffffffffff1673ffffffffffffffffffffffffffffffffffffffff1681526020018060200180602001871515151581526020018673ffffffffffffffffffffffffffffffffffffffff1673ffffffffffffffffffffffffffffffffffffffff168152602001851515151581526020018060200184810384528a818151815260200191508051906020019060200280838360005b838110156103cc5780820151818401526020810190506103b1565b50505050905001848103835289818151815260200191508051906020019060200280838360005b8381101561040e5780820151818401526020810190506103f3565b50505050905001848103825285818151815260200191508051906020019080838360005b8381101561044d578082015181840152602081019050610432565b50505050905090810190601f16801561047a5780820380516001836020036101000a031916815260200191505b509a505050505050505050505060405180910390f35b610498611106565b6040518082815260200191505060405180910390f35b6104fa600480360360408110156104c457600080fd5b81019080803573ffffffffffffffffffffffffffffffffffffffff16906020019092919080359060200190929190505050611110565b005b61053e6004803603602081101561051257600080fd5b81019080803573ffffffffffffffffffffffffffffffffffffffff1690602001909291905050506116e2565b604051808673ffffffffffffffffffffffffffffffffffffffff1673ffffffffffffffffffffffffffffffffffffffff1681526020018060200185815260200184815260200180602001838103835287818151815260200191508051906020019060200280838360005b838110156105c35780820151818401526020810190506105a8565b50505050905001838103825284818151815260200191508051906020019080838360005b838110156106025780820151818401526020810190506105e7565b50505050905090810190601f16801561062f5780820380516001836020036101000a031916815260200191505b5097505050505050505060405180910390f35b6106ae6004803603606081101561065857600080fd5b81019080803573ffffffffffffffffffffffffffffffffffffffff169060200190929190803573ffffffffffffffffffffffffffffffffffffffff1690602001909291908035906020019092919050505061198f565b604051808215151515815260200191505060405180910390f35b61072a600480360360408110156106de57600080fd5b81019080803573ffffffffffffffffffffffffffffffffffffffff169060200190929190803573ffffffffffffffffffffffffffffffffffffffff169060200190929190505050611a68565b005b6107586004803603602081101561074257600080fd5b8101908080359060200190929190505050611ed2565b005b6107626121ca565b6040518082815260200191505060405180910390f35b6107806121d0565b604051808260ff1660ff16815260200191505060405180910390f35b6107e8600480360360408110156107b257600080fd5b81019080803573ffffffffffffffffffffffffffffffffffffffff169060200190929190803590602001909291905050506121e3565b604051808215151515815260200191505060405180910390f35b6108446004803603602081101561081857600080fd5b81019080803573ffffffffffffffffffffffffffffffffffffffff169060200190929190505050612296565b005b61084e612585565b005b6109296004803603604081101561086657600080fd5b81019080803573ffffffffffffffffffffffffffffffffffffffff169060200190929190803590602001906401000000008111156108a357600080fd5b8201836020820111156108b557600080fd5b803590602001918460018302840111640100000000831117156108d757600080fd5b91908080601f016020809104026020016040519081016040528093929190818152602001838380828437600081840152601f19601f82011690508083019250505050505050919291929050505061282d565b005b6109336129f2565b6040518082815260200191505060405180910390f35b61098b6004803603602081101561095f57600080fd5b81019080803573ffffffffffffffffffffffffffffffffffffffff1690602001909291905050506129fe565b6040518082815260200191505060405180910390f35b6109a9612a46565b6040518080602001828103825283818151815260200191508051906020019080838360005b838110156109e95780820151818401526020810190506109ce565b50505050905090810190601f168015610a165780820380516001836020036101000a031916815260200191505b509250505060405180910390f35b610a7060048036036040811015610a3a57600080fd5b81019080803573ffffffffffffffffffffffffffffffffffffffff16906020019092919080359060200190929190505050612ae4565b604051808215151515815260200191505060405180910390f35b610ad660048036036040811015610aa057600080fd5b81019080803573ffffffffffffffffffffffffffffffffffffffff16906020019092919080359060200190929190505050612bb1565b604051808215151515815260200191505060405180910390f35b610b3c60048036036040811015610b0657600080fd5b81019080803573ffffffffffffffffffffffffffffffffffffffff16906020019092919080359060200190929190505050612bcf565b005b610ba060048036036040811015610b5457600080fd5b81019080803573ffffffffffffffffffffffffffffffffffffffff169060200190929190803573ffffffffffffffffffffffffffffffffffffffff169060200190929190505050612f0f565b6040518082815260200191505060405180910390f35b610c8f60048036036040811015610bcc57600080fd5b81019080803573ffffffffffffffffffffffffffffffffffffffff16906020019092919080359060200190640100000000811115610c0957600080fd5b820183602082011115610c1b57600080fd5b80359060200191846001830284011164010000000083111715610c3d57600080fd5b91908080601f016020809104026020016040519081016040528093929190818152602001838380828437600081840152601f19601f820116905080830192505050505050509192919290505050612f96565b005b610c9a33613242565b565b6000610cb282600761329c90919063ffffffff16565b9050919050565b60038054600181600116156101000203166002900480601f016020809104026020016040519081016040528092919081815260200182805460018160011615610100020316600290048015610d4f5780601f10610d2457610100808354040283529160200191610d4f565b820191906000526020600020905b815481529060010190602001808311610d3257829003601f168201915b505050505081565b6000610d6b610d6461337a565b8484613382565b6001905092915050565b600060608060008060006060600a60008973ffffffffffffffffffffffffffffffffffffffff1673ffffffffffffffffffffffffffffffffffffffff16815260200190815260200160002060000160009054906101000a900473ffffffffffffffffffffffffffffffffffffffff16600a60008a73ffffffffffffffffffffffffffffffffffffffff1673ffffffffffffffffffffffffffffffffffffffff168152602001908152602001600020600101600a60008b73ffffffffffffffffffffffffffffffffffffffff1673ffffffffffffffffffffffffffffffffffffffff168152602001908152602001600020600201600a60008c73ffffffffffffffffffffffffffffffffffffffff1673ffffffffffffffffffffffffffffffffffffffff16815260200190815260200160002060030160009054906101000a900460ff16600a60008d73ffffffffffffffffffffffffffffffffffffffff1673ffffffffffffffffffffffffffffffffffffffff16815260200190815260200160002060030160019054906101000a900473ffffffffffffffffffffffffffffffffffffffff16600a60008e73ffffffffffffffffffffffffffffffffffffffff1673ffffffffffffffffffffffffffffffffffffffff16815260200190815260200160002060030160159054906101000a900460ff16600a60008f73ffffffffffffffffffffffffffffffffffffffff1673ffffffffffffffffffffffffffffffffffffffff16815260200190815260200160002060040185805480602002602001604051908101604052809291908181526020018280548015610ff857602002820191906000526020600020905b815481526020019060010190808311610fe4575b505050505095508480548060200260200160405190810160405280929190818152602001828054801561104a57602002820191906000526020600020905b815481526020019060010190808311611036575b50505050509450808054600181600116156101000203166002900480601f0160208091040260200160405190810160405280929190818152602001828054600181600116156101000203166002900480156110e65780601f106110bb576101008083540402835291602001916110e6565b820191906000526020600020905b8154815290600101906020018083116110c957829003601f168201915b505050505090509650965096509650965096509650919395979092949650565b6000600254905090565b33600073ffffffffffffffffffffffffffffffffffffffff16600960008373ffffffffffffffffffffffffffffffffffffffff1673ffffffffffffffffffffffffffffffffffffffff16815260200190815260200160002060000160009054906101000a900473ffffffffffffffffffffffffffffffffffffffff1673ffffffffffffffffffffffffffffffffffffffff161415611216576040517f08c379a00000000000000000000000000000000000000000000000000000000081526004018080602001828103825260168152602001807f55736572206973206e6f7420726567697374657265640000000000000000000081525060200191505060405180910390fd5b82600073ffffffffffffffffffffffffffffffffffffffff16600a60008373ffffffffffffffffffffffffffffffffffffffff1673ffffffffffffffffffffffffffffffffffffffff16815260200190815260200160002060000160009054906101000a900473ffffffffffffffffffffffffffffffffffffffff1673ffffffffffffffffffffffffffffffffffffffff16141561131c576040517f08c379a00000000000000000000000000000000000000000000000000000000081526004018080602001828103825260168152602001807f546f6f6c206973206e6f7420726567697374657265640000000000000000000081525060200191505060405180910390fd5b3373ffffffffffffffffffffffffffffffffffffffff16600a60008673ffffffffffffffffffffffffffffffffffffffff1673ffffffffffffffffffffffffffffffffffffffff16815260200190815260200160002060030160019054906101000a900473ffffffffffffffffffffffffffffffffffffffff1673ffffffffffffffffffffffffffffffffffffffff1614611402576040517f08c379a000000000000000000000000000000000000000000000000000000000815260040180806020018281038252602b8152602001806141dc602b913960400191505060405180910390fd5b60011515600a60008673ffffffffffffffffffffffffffffffffffffffff1673ffffffffffffffffffffffffffffffffffffffff16815260200190815260200160002060030160159054906101000a900460ff161515146114ae576040517f08c379a000000000000000000000000000000000000000000000000000000000815260040180806020018281038252602681526020018061408c6026913960400191505060405180910390fd5b6000600a60008673ffffffffffffffffffffffffffffffffffffffff1673ffffffffffffffffffffffffffffffffffffffff16815260200190815260200160002060030160156101000a81548160ff021916908315150217905550600a60008573ffffffffffffffffffffffffffffffffffffffff1673ffffffffffffffffffffffffffffffffffffffff168152602001908152602001600020600101839080600181540180825580915050906001820390600052602060002001600090919290919091505550600a60008573ffffffffffffffffffffffffffffffffffffffff1673ffffffffffffffffffffffffffffffffffffffff168152602001908152602001600020600201429080600181540180825580915050906001820390600052602060002001600090919290919091505550600160ff16600960003373ffffffffffffffffffffffffffffffffffffffff1673ffffffffffffffffffffffffffffffffffffffff168152602001908152602001600020600201600082825401925050819055507fc1228c54807482273c4551679a9ee440039c57d4cce0ac70e715c07fdac8468633854286604051808573ffffffffffffffffffffffffffffffffffffffff1673ffffffffffffffffffffffffffffffffffffffff1681526020018473ffffffffffffffffffffffffffffffffffffffff1673ffffffffffffffffffffffffffffffffffffffff16815260200183815260200182815260200194505050505060405180910390a150505050565b600060606000806060600960008773ffffffffffffffffffffffffffffffffffffffff1673ffffffffffffffffffffffffffffffffffffffff16815260200190815260200160002060000160009054906101000a900473ffffffffffffffffffffffffffffffffffffffff16600960008873ffffffffffffffffffffffffffffffffffffffff1673ffffffffffffffffffffffffffffffffffffffff168152602001908152602001600020600101600960008973ffffffffffffffffffffffffffffffffffffffff1673ffffffffffffffffffffffffffffffffffffffff16815260200190815260200160002060020154600960008a73ffffffffffffffffffffffffffffffffffffffff1673ffffffffffffffffffffffffffffffffffffffff16815260200190815260200160002060030154600960008b73ffffffffffffffffffffffffffffffffffffffff1673ffffffffffffffffffffffffffffffffffffffff168152602001908152602001600020600401838054806020026020016040519081016040528092919081815260200182805480156118d957602002820191906000526020600020905b8160009054906101000a900473ffffffffffffffffffffffffffffffffffffffff1673ffffffffffffffffffffffffffffffffffffffff168152602001906001019080831161188f575b50505050509350808054600181600116156101000203166002900480601f0160208091040260200160405190810160405280929190818152602001828054600181600116156101000203166002900480156119755780601f1061194a57610100808354040283529160200191611975565b820191906000526020600020905b81548152906001019060200180831161195857829003601f168201915b505050505090509450945094509450945091939590929450565b600061199c848484613579565b611a5d846119a861337a565b611a58856040518060600160405280602881526020016141b460289139600160008b73ffffffffffffffffffffffffffffffffffffffff1673ffffffffffffffffffffffffffffffffffffffff1681526020019081526020016000206000611a0e61337a565b73ffffffffffffffffffffffffffffffffffffffff1673ffffffffffffffffffffffffffffffffffffffff1681526020019081526020016000205461382f9092919063ffffffff16565b613382565b600190509392505050565b611a7133610c9c565b611ae3576040517f08c379a000000000000000000000000000000000000000000000000000000000815260040180806020018281038252601d8152602001807f73656e646572206973206e6f7420612048696c7469206163636f756e7400000081525060200191505060405180910390fd5b81600073ffffffffffffffffffffffffffffffffffffffff16600960008373ffffffffffffffffffffffffffffffffffffffff1673ffffffffffffffffffffffffffffffffffffffff16815260200190815260200160002060000160009054906101000a900473ffffffffffffffffffffffffffffffffffffffff1673ffffffffffffffffffffffffffffffffffffffff161415611be9576040517f08c379a00000000000000000000000000000000000000000000000000000000081526004018080602001828103825260168152602001807f55736572206973206e6f7420726567697374657265640000000000000000000081525060200191505060405180910390fd5b8160001515600a60008373ffffffffffffffffffffffffffffffffffffffff1673ffffffffffffffffffffffffffffffffffffffff16815260200190815260200160002060030160009054906101000a900460ff16151514611cb3576040517f08c379a00000000000000000000000000000000000000000000000000000000081526004018080602001828103825260188152602001807f546f6f6c20697320616c72656164792061737369676e6564000000000000000081525060200191505060405180910390fd5b6001600a60008573ffffffffffffffffffffffffffffffffffffffff1673ffffffffffffffffffffffffffffffffffffffff16815260200190815260200160002060030160006101000a81548160ff02191690831515021790555083600a60008573ffffffffffffffffffffffffffffffffffffffff1673ffffffffffffffffffffffffffffffffffffffff16815260200190815260200160002060030160016101000a81548173ffffffffffffffffffffffffffffffffffffffff021916908373ffffffffffffffffffffffffffffffffffffffff160217905550600960008573ffffffffffffffffffffffffffffffffffffffff1673ffffffffffffffffffffffffffffffffffffffff1681526020019081526020016000206001018390806001815401808255809150509060018203906000526020600020016000909192909190916101000a81548173ffffffffffffffffffffffffffffffffffffffff021916908373ffffffffffffffffffffffffffffffffffffffff160217905550507fc052f4fef57bdd2c4b5bc8657a30546533c71a9bee16916e3f9c9ada67c38ccd8484604051808373ffffffffffffffffffffffffffffffffffffffff1673ffffffffffffffffffffffffffffffffffffffff1681526020018273ffffffffffffffffffffffffffffffffffffffff1673ffffffffffffffffffffffffffffffffffffffff1681526020019250505060405180910390a150505050565b33600073ffffffffffffffffffffffffffffffffffffffff16600960008373ffffffffffffffffffffffffffffffffffffffff1673ffffffffffffffffffffffffffffffffffffffff16815260200190815260200160002060000160009054906101000a900473ffffffffffffffffffffffffffffffffffffffff1673ffffffffffffffffffffffffffffffffffffffff161415611fd8576040517f08c379a00000000000000000000000000000000000000000000000000000000081526004018080602001828103825260168152602001807f55736572206973206e6f7420726567697374657265640000000000000000000081525060200191505060405180910390fd5b6000611fe3336129fe565b90508281101561205b576040517f08c379a000000000000000000000000000000000000000000000000000000000815260040180806020018281038252601d8152602001807f546f6b656e42616c616e6365206e6f74206c6172676520656e6f75676800000081525060200191505060405180910390fd5b601460ff16600960003373ffffffffffffffffffffffffffffffffffffffff1673ffffffffffffffffffffffffffffffffffffffff1681526020019081526020016000206003015411156120fa576040517f08c379a000000000000000000000000000000000000000000000000000000000815260040180806020018281038252602d815260200180614140602d913960400191505060405180910390fd5b61210433846138ef565b600083905080600960003373ffffffffffffffffffffffffffffffffffffffff1673ffffffffffffffffffffffffffffffffffffffff168152602001908152602001600020600301600082825401925050819055507f61e8321aa270710f03a54e4ebf94a079e613de1da64022c29910b3bda2c7de073382604051808373ffffffffffffffffffffffffffffffffffffffff1673ffffffffffffffffffffffffffffffffffffffff1681526020018281526020019250505060405180910390a150505050565b60065481565b600560009054906101000a900460ff1681565b600061228c6121f061337a565b84612287856001600061220161337a565b73ffffffffffffffffffffffffffffffffffffffff1673ffffffffffffffffffffffffffffffffffffffff16815260200190815260200160002060008973ffffffffffffffffffffffffffffffffffffffff1673ffffffffffffffffffffffffffffffffffffffff16815260200190815260200160002054613aa790919063ffffffff16565b613382565b6001905092915050565b61229f33610c9c565b612311576040517f08c379a000000000000000000000000000000000000000000000000000000000815260040180806020018281038252601d8152602001807f73656e646572206973206e6f7420612048696c7469206163636f756e7400000081525060200191505060405180910390fd5b80600073ffffffffffffffffffffffffffffffffffffffff16600a60008373ffffffffffffffffffffffffffffffffffffffff1673ffffffffffffffffffffffffffffffffffffffff16815260200190815260200160002060000160009054906101000a900473ffffffffffffffffffffffffffffffffffffffff1673ffffffffffffffffffffffffffffffffffffffff161415612417576040517f08c379a00000000000000000000000000000000000000000000000000000000081526004018080602001828103825260168152602001807f546f6f6c206973206e6f7420726567697374657265640000000000000000000081525060200191505060405180910390fd5b60001515600a60008473ffffffffffffffffffffffffffffffffffffffff1673ffffffffffffffffffffffffffffffffffffffff16815260200190815260200160002060030160159054906101000a900460ff161515146124c3576040517f08c379a00000000000000000000000000000000000000000000000000000000081526004018080602001828103825260268152602001806142b86026913960400191505060405180910390fd5b6001600a60008473ffffffffffffffffffffffffffffffffffffffff1673ffffffffffffffffffffffffffffffffffffffff16815260200190815260200160002060030160156101000a81548160ff0219169083151502179055507f6b411be2f5528c2eae069f78b4e68c06bd8d274e36927b635f60ebc3c349480582604051808273ffffffffffffffffffffffffffffffffffffffff1673ffffffffffffffffffffffffffffffffffffffff16815260200191505060405180910390a15050565b33600073ffffffffffffffffffffffffffffffffffffffff16600960008373ffffffffffffffffffffffffffffffffffffffff1673ffffffffffffffffffffffffffffffffffffffff16815260200190815260200160002060000160009054906101000a900473ffffffffffffffffffffffffffffffffffffffff1673ffffffffffffffffffffffffffffffffffffffff16141561268b576040517f08c379a00000000000000000000000000000000000000000000000000000000081526004018080602001828103825260168152602001807f55736572206973206e6f7420726567697374657265640000000000000000000081525060200191505060405180910390fd5b6000600960003373ffffffffffffffffffffffffffffffffffffffff1673ffffffffffffffffffffffffffffffffffffffff168152602001908152602001600020600201541415612727576040517f08c379a00000000000000000000000000000000000000000000000000000000081526004018080602001828103825260278152602001806141196027913960400191505060405180910390fd5b6000600960003373ffffffffffffffffffffffffffffffffffffffff1673ffffffffffffffffffffffffffffffffffffffff168152602001908152602001600020600201549050600960003373ffffffffffffffffffffffffffffffffffffffff1673ffffffffffffffffffffffffffffffffffffffff168152602001908152602001600020600201600090556127be3382613b2f565b7fc43f04673d564535fa7c6ab048cc307f5b297086158607f0ee512091852336c33382604051808373ffffffffffffffffffffffffffffffffffffffff1673ffffffffffffffffffffffffffffffffffffffff1681526020018281526020019250505060405180910390a15050565b61283633610c9c565b6128a8576040517f08c379a000000000000000000000000000000000000000000000000000000000815260040180806020018281038252601d8152602001807f73656e646572206973206e6f7420612048696c7469206163636f756e7400000081525060200191505060405180910390fd5b6040518060a001604052808373ffffffffffffffffffffffffffffffffffffffff16815260200160006040519080825280602002602001820160405280156128ff5781602001602082028038833980820191505090505b508152602001600081526020016000815260200182815250600960008473ffffffffffffffffffffffffffffffffffffffff1673ffffffffffffffffffffffffffffffffffffffff16815260200190815260200160002060008201518160000160006101000a81548173ffffffffffffffffffffffffffffffffffffffff021916908373ffffffffffffffffffffffffffffffffffffffff16021790555060208201518160010190805190602001906129b9929190613df1565b50604082015181600201556060820151816003015560808201518160040190805190602001906129ea929190613e7b565b509050505050565b6000600160ff16905090565b60008060008373ffffffffffffffffffffffffffffffffffffffff1673ffffffffffffffffffffffffffffffffffffffff168152602001908152602001600020549050919050565b60048054600181600116156101000203166002900480601f016020809104026020016040519081016040528092919081815260200182805460018160011615610100020316600290048015612adc5780601f10612ab157610100808354040283529160200191612adc565b820191906000526020600020905b815481529060010190602001808311612abf57829003601f168201915b505050505081565b6000612ba7612af161337a565b84612ba2856040518060600160405280602581526020016142936025913960016000612b1b61337a565b73ffffffffffffffffffffffffffffffffffffffff1673ffffffffffffffffffffffffffffffffffffffff16815260200190815260200160002060008a73ffffffffffffffffffffffffffffffffffffffff1673ffffffffffffffffffffffffffffffffffffffff1681526020019081526020016000205461382f9092919063ffffffff16565b613382565b6001905092915050565b6000612bc5612bbe61337a565b8484613579565b6001905092915050565b33600073ffffffffffffffffffffffffffffffffffffffff16600960008373ffffffffffffffffffffffffffffffffffffffff1673ffffffffffffffffffffffffffffffffffffffff16815260200190815260200160002060000160009054906101000a900473ffffffffffffffffffffffffffffffffffffffff1673ffffffffffffffffffffffffffffffffffffffff161415612cd5576040517f08c379a00000000000000000000000000000000000000000000000000000000081526004018080602001828103825260168152602001807f55736572206973206e6f7420726567697374657265640000000000000000000081525060200191505060405180910390fd5b82600073ffffffffffffffffffffffffffffffffffffffff16600960008373ffffffffffffffffffffffffffffffffffffffff1673ffffffffffffffffffffffffffffffffffffffff16815260200190815260200160002060000160009054906101000a900473ffffffffffffffffffffffffffffffffffffffff1673ffffffffffffffffffffffffffffffffffffffff161415612ddb576040517f08c379a00000000000000000000000000000000000000000000000000000000081526004018080602001828103825260168152602001807f55736572206973206e6f7420726567697374657265640000000000000000000081525060200191505060405180910390fd5b6000612de6336129fe565b905083811015612e5e576040517f08c379a000000000000000000000000000000000000000000000000000000000815260040180806020018281038252601d8152602001807f546f6b656e42616c616e6365206e6f74206c6172676520656e6f75676800000081525060200191505060405180910390fd5b612e688585612bb1565b507fe4b55ea04d5078942bd5ce571c7eb4d433aa5b0c6373752a7e899370ff083ddd338686604051808473ffffffffffffffffffffffffffffffffffffffff1673ffffffffffffffffffffffffffffffffffffffff1681526020018373ffffffffffffffffffffffffffffffffffffffff1673ffffffffffffffffffffffffffffffffffffffff168152602001828152602001935050505060405180910390a15050505050565b6000600160008473ffffffffffffffffffffffffffffffffffffffff1673ffffffffffffffffffffffffffffffffffffffff16815260200190815260200160002060008373ffffffffffffffffffffffffffffffffffffffff1673ffffffffffffffffffffffffffffffffffffffff16815260200190815260200160002054905092915050565b612f9f33610c9c565b613011576040517f08c379a000000000000000000000000000000000000000000000000000000000815260040180806020018281038252601d8152602001807f73656e646572206973206e6f7420612048696c7469206163636f756e7400000081525060200191505060405180910390fd5b6040518060e001604052808373ffffffffffffffffffffffffffffffffffffffff16815260200160006040519080825280602002602001820160405280156130685781602001602082028038833980820191505090505b508152602001600060405190808252806020026020018201604052801561309e5781602001602082028038833980820191505090505b508152602001600015158152602001600073ffffffffffffffffffffffffffffffffffffffff16815260200160001515815260200182815250600a60008473ffffffffffffffffffffffffffffffffffffffff1673ffffffffffffffffffffffffffffffffffffffff16815260200190815260200160002060008201518160000160006101000a81548173ffffffffffffffffffffffffffffffffffffffff021916908373ffffffffffffffffffffffffffffffffffffffff1602179055506020820151816001019080519060200190613179929190613efb565b506040820151816002019080519060200190613196929190613efb565b5060608201518160030160006101000a81548160ff02191690831515021790555060808201518160030160016101000a81548173ffffffffffffffffffffffffffffffffffffffff021916908373ffffffffffffffffffffffffffffffffffffffff16021790555060a08201518160030160156101000a81548160ff02191690831515021790555060c082015181600401908051906020019061323a929190613e7b565b509050505050565b613256816007613cea90919063ffffffff16565b8073ffffffffffffffffffffffffffffffffffffffff167f5d5dda5b73c8f1af11ce2d27f2d63ebb3cac1cf4cef2c4e339afb3d674479a7760405160405180910390a250565b60008073ffffffffffffffffffffffffffffffffffffffff168273ffffffffffffffffffffffffffffffffffffffff161415613323576040517f08c379a00000000000000000000000000000000000000000000000000000000081526004018080602001828103825260228152602001806142076022913960400191505060405180910390fd5b8260000160008373ffffffffffffffffffffffffffffffffffffffff1673ffffffffffffffffffffffffffffffffffffffff16815260200190815260200160002060009054906101000a900460ff16905092915050565b600033905090565b600073ffffffffffffffffffffffffffffffffffffffff168373ffffffffffffffffffffffffffffffffffffffff161415613408576040517f08c379a000000000000000000000000000000000000000000000000000000000815260040180806020018281038252602481526020018061426f6024913960400191505060405180910390fd5b600073ffffffffffffffffffffffffffffffffffffffff168273ffffffffffffffffffffffffffffffffffffffff16141561348e576040517f08c379a00000000000000000000000000000000000000000000000000000000081526004018080602001828103825260228152602001806140f76022913960400191505060405180910390fd5b80600160008573ffffffffffffffffffffffffffffffffffffffff1673ffffffffffffffffffffffffffffffffffffffff16815260200190815260200160002060008473ffffffffffffffffffffffffffffffffffffffff1673ffffffffffffffffffffffffffffffffffffffff168152602001908152602001600020819055508173ffffffffffffffffffffffffffffffffffffffff168373ffffffffffffffffffffffffffffffffffffffff167f8c5be1e5ebec7d5bd14f71427d1e84f3dd0314c0f7b2291e5b200ac8c7c3b925836040518082815260200191505060405180910390a3505050565b600073ffffffffffffffffffffffffffffffffffffffff168373ffffffffffffffffffffffffffffffffffffffff1614156135ff576040517f08c379a000000000000000000000000000000000000000000000000000000000815260040180806020018281038252602581526020018061424a6025913960400191505060405180910390fd5b600073ffffffffffffffffffffffffffffffffffffffff168273ffffffffffffffffffffffffffffffffffffffff161415613685576040517f08c379a00000000000000000000000000000000000000000000000000000000081526004018080602001828103825260238152602001806140b26023913960400191505060405180910390fd5b6136f08160405180606001604052806026815260200161416d602691396000808773ffffffffffffffffffffffffffffffffffffffff1673ffffffffffffffffffffffffffffffffffffffff1681526020019081526020016000205461382f9092919063ffffffff16565b6000808573ffffffffffffffffffffffffffffffffffffffff1673ffffffffffffffffffffffffffffffffffffffff16815260200190815260200160002081905550613783816000808573ffffffffffffffffffffffffffffffffffffffff1673ffffffffffffffffffffffffffffffffffffffff16815260200190815260200160002054613aa790919063ffffffff16565b6000808473ffffffffffffffffffffffffffffffffffffffff1673ffffffffffffffffffffffffffffffffffffffff168152602001908152602001600020819055508173ffffffffffffffffffffffffffffffffffffffff168373ffffffffffffffffffffffffffffffffffffffff167fddf252ad1be2c89b69c2b068fc378daa952ba7f163c4a11628f55a4df523b3ef836040518082815260200191505060405180910390a3505050565b60008383111582906138dc576040517f08c379a00000000000000000000000000000000000000000000000000000000081526004018080602001828103825283818151815260200191508051906020019080838360005b838110156138a1578082015181840152602081019050613886565b50505050905090810190601f1680156138ce5780820380516001836020036101000a031916815260200191505b509250505060405180910390fd5b5060008385039050809150509392505050565b600073ffffffffffffffffffffffffffffffffffffffff168273ffffffffffffffffffffffffffffffffffffffff161415613975576040517f08c379a00000000000000000000000000000000000000000000000000000000081526004018080602001828103825260218152602001806142296021913960400191505060405180910390fd5b6139e0816040518060600160405280602281526020016140d5602291396000808673ffffffffffffffffffffffffffffffffffffffff1673ffffffffffffffffffffffffffffffffffffffff1681526020019081526020016000205461382f9092919063ffffffff16565b6000808473ffffffffffffffffffffffffffffffffffffffff1673ffffffffffffffffffffffffffffffffffffffff16815260200190815260200160002081905550613a3781600254613da790919063ffffffff16565b600281905550600073ffffffffffffffffffffffffffffffffffffffff168273ffffffffffffffffffffffffffffffffffffffff167fddf252ad1be2c89b69c2b068fc378daa952ba7f163c4a11628f55a4df523b3ef836040518082815260200191505060405180910390a35050565b600080828401905083811015613b25576040517f08c379a000000000000000000000000000000000000000000000000000000000815260040180806020018281038252601b8152602001807f536166654d6174683a206164646974696f6e206f766572666c6f77000000000081525060200191505060405180910390fd5b8091505092915050565b600073ffffffffffffffffffffffffffffffffffffffff168273ffffffffffffffffffffffffffffffffffffffff161415613bd2576040517f08c379a000000000000000000000000000000000000000000000000000000000815260040180806020018281038252601f8152602001807f45524332303a206d696e7420746f20746865207a65726f20616464726573730081525060200191505060405180910390fd5b613be781600254613aa790919063ffffffff16565b600281905550613c3e816000808573ffffffffffffffffffffffffffffffffffffffff1673ffffffffffffffffffffffffffffffffffffffff16815260200190815260200160002054613aa790919063ffffffff16565b6000808473ffffffffffffffffffffffffffffffffffffffff1673ffffffffffffffffffffffffffffffffffffffff168152602001908152602001600020819055508173ffffffffffffffffffffffffffffffffffffffff16600073ffffffffffffffffffffffffffffffffffffffff167fddf252ad1be2c89b69c2b068fc378daa952ba7f163c4a11628f55a4df523b3ef836040518082815260200191505060405180910390a35050565b613cf4828261329c565b613d49576040517f08c379a00000000000000000000000000000000000000000000000000000000081526004018080602001828103825260218152602001806141936021913960400191505060405180910390fd5b60008260000160008373ffffffffffffffffffffffffffffffffffffffff1673ffffffffffffffffffffffffffffffffffffffff16815260200190815260200160002060006101000a81548160ff0219169083151502179055505050565b6000613de983836040518060400160405280601e81526020017f536166654d6174683a207375627472616374696f6e206f766572666c6f77000081525061382f565b905092915050565b828054828255906000526020600020908101928215613e6a579160200282015b82811115613e695782518260006101000a81548173ffffffffffffffffffffffffffffffffffffffff021916908373ffffffffffffffffffffffffffffffffffffffff16021790555091602001919060010190613e11565b5b509050613e779190613f48565b5090565b828054600181600116156101000203166002900490600052602060002090601f016020900481019282601f10613ebc57805160ff1916838001178555613eea565b82800160010185558215613eea579182015b82811115613ee9578251825591602001919060010190613ece565b5b509050613ef79190613f8b565b5090565b828054828255906000526020600020908101928215613f37579160200282015b82811115613f36578251825591602001919060010190613f1b565b5b509050613f449190613f8b565b5090565b613f8891905b80821115613f8457600081816101000a81549073ffffffffffffffffffffffffffffffffffffffff021916905550600101613f4e565b5090565b90565b613fad91905b80821115613fa9576000816000905550600101613f91565b5090565b90565b613fba828261329c565b1561402d576040517f08c379a000000000000000000000000000000000000000000000000000000000815260040180806020018281038252601f8152602001807f526f6c65733a206163636f756e7420616c72656164792068617320726f6c650081525060200191505060405180910390fd5b60018260000160008373ffffffffffffffffffffffffffffffffffffffff1673ffffffffffffffffffffffffffffffffffffffff16815260200190815260200160002060006101000a81548160ff021916908315150217905550505056fe5468697320746f6f6c20646f6573206e6f74207265717565737420646174612075706c6f616445524332303a207472616e7366657220746f20746865207a65726f206164647265737345524332303a206275726e20616d6f756e7420657863656564732062616c616e636545524332303a20617070726f766520746f20746865207a65726f20616464726573734e6f20616d6f756e742077617320637265646974656420746f20796f757220616464726573732e596f752061726520616c726561647920617420746865206d6178696d756d20646973636f756e74206c6576656c45524332303a207472616e7366657220616d6f756e7420657863656564732062616c616e6365526f6c65733a206163636f756e7420646f6573206e6f74206861766520726f6c6545524332303a207472616e7366657220616d6f756e74206578636565647320616c6c6f77616e63655468697320746f6f6c206973206e6f742072656769737465726564206f6e20796f7572206163636f756e74526f6c65733a206163636f756e7420697320746865207a65726f206164647265737345524332303a206275726e2066726f6d20746865207a65726f206164647265737345524332303a207472616e736665722066726f6d20746865207a65726f206164647265737345524332303a20617070726f76652066726f6d20746865207a65726f206164647265737345524332303a2064656372656173656420616c6c6f77616e63652062656c6f77207a65726f5468697320746f6f6c20616c726561647920726571756972657320646174612075706c6f6164a265627a7a72315820cab1621457fd2bf9b6023bdff176b7e5ca56f618528fa567d5130bc9b9c77a7564736f6c634300050c0032526f6c65733a206163636f756e7420697320746865207a65726f2061646472657373",
  "source": "pragma solidity ^0.5.0;\r\n\r\nimport \"../client/node_modules/openzeppelin-solidity/contracts/math/SafeMath.sol\";\r\n\r\n//Import role contracts to use its modifiers\r\nimport \"./HiltiRole.sol\";\r\n\r\n//Import HiltiToken contract to use its functions\r\nimport \"./HiltiToken.sol\";\r\n\r\ncontract HiltiContract is HiltiToken, HiltiRole {\r\n    using SafeMath for uint256;\r\n\r\n    /********************************************************************************************/\r\n    /*                                       DATA VARIABLES                                     */\r\n    /********************************************************************************************/\r\n\r\n    address private contractOwner;                   //Contract Owner\r\n    uint8 private constant TOKEN_AMOUNT = 1;         //Amount of Hilti Tokens a user receives per upload\r\n    uint8 private constant MAXIMUM_DISCOUNT = 20;    //Maximum Discount\r\n\r\n    struct UserData {\r\n        address userAccount;\r\n        address[] toolList;         //List of registered Tools for this users\r\n        uint256 creditedAmount;     //HiltiToken Balance\r\n        uint256 currentDiscount;    //HiltiDiscount\r\n        string name;\r\n    }\r\n\r\n    struct ToolData {\r\n        address toolAccount;\r\n        uint256[] usageTime;        //List of usageTime\r\n        uint256[] timeStamps;       //List of Timestamps\r\n        bool isAssigned;            //To check whether tool is already assigned to a user\r\n        address userAccount;        //Assigned User\r\n        bool uploadRequest;         //To check whether data can be uploaded\r\n        string name;\r\n    }\r\n\r\n    mapping(address => UserData) userData;  // Mapping to store user related information\r\n    mapping(address => ToolData) toolData;  // Mapping to store tool related information\r\n\r\n    /********************************************************************************************/\r\n    /*                                       EVENT DEFINITIONS                                  */\r\n    /********************************************************************************************/\r\n\r\n    event ToolAssigned(address accountUser, address accountTool);\r\n    event DataUploaded(address accountUser, address accountTool, uint timeStamp, uint256 usageTime);\r\n    event UploadRequest(address accountTool);\r\n    event AccountCredited(address accountUser, uint256 amount);\r\n    event DiscountCredited(address accountUser, uint256 amount);\r\n    event HiltiTokenTransferred(address sender, address recipient, uint256 amount);\r\n\r\n    /********************************************************************************************/\r\n    /*                                       CONSTRUCTOR                                        */\r\n    /********************************************************************************************/\r\n\r\n    /**\r\n    * @dev Constructor\r\n    *      The deploying account becomes contractOwner\r\n    *      This needs to be a Hilti account!\r\n    */\r\n    constructor() public\r\n    {\r\n        //The account deploying the contract becomes the first Hilti account and the Owner of this contract\r\n        contractOwner = msg.sender;\r\n    }\r\n\r\n    /********************************************************************************************/\r\n    /*                                       FUNCTION MODIFIERS                                 */\r\n    /********************************************************************************************/\r\n\r\n\r\n    /**\r\n    * @dev Modifier that checks if a user is registered\r\n    */\r\n    modifier checkUser(address _userAddress)\r\n    {\r\n        require(userData[_userAddress].userAccount != address(0), \"User is not registered\");\r\n        _;\r\n    }\r\n\r\n    /**\r\n    * @dev Modifier that checks if a tool is registered\r\n    */\r\n    modifier checkTool(address _toolAddress)\r\n    {\r\n        require(toolData[_toolAddress].toolAccount != address(0), \"Tool is not registered\");\r\n        _;\r\n    }\r\n\r\n    /**\r\n    * @dev Modifier that checks if a tool is already registered for a user\r\n    */\r\n    modifier requireFreeTool(address _toolAddress)\r\n    {\r\n        require(toolData[_toolAddress].isAssigned == false, \"Tool is already assigned\");\r\n        _;\r\n    }\r\n\r\n    /********************************************************************************************/\r\n    /*                                       UTILITY FUNCTIONS                                  */\r\n    /********************************************************************************************/\r\n\r\n    /**\r\n    * @dev Add User - Only allowed by Hilti account\r\n    */\r\n    function addUser(address _account, string memory _name) public onlyHilti {\r\n        //check that not a hilit/tool addresse\r\n        //check that not already registered as user\r\n\r\n        //create struct entry for this user\r\n        userData[_account] = UserData({\r\n            userAccount: _account,\r\n            toolList: new address[](0),\r\n            creditedAmount: 0,\r\n            currentDiscount: 0,\r\n            name: _name\r\n        });\r\n    }\r\n\r\n    /**\r\n    * @dev Add Tool - Only allowed by Hilti account\r\n    */\r\n    function addTool(address _account, string memory _name) public onlyHilti {\r\n        //check that not a hilti/user address\r\n        //check that not already registered as tool\r\n\r\n        //create struct entry for this tool\r\n        toolData[_account] = ToolData({\r\n            toolAccount: _account,\r\n            usageTime: new uint256[](0),\r\n            timeStamps: new uint256[](0),\r\n            isAssigned: false,\r\n            userAccount: address(0),\r\n            uploadRequest: false,\r\n            name: _name\r\n        });\r\n    }\r\n\r\n    function get() public view returns (uint) {\r\n        return TOKEN_AMOUNT;\r\n    }\r\n\r\n    /********************************************************************************************/\r\n    /*                                     SMART CONTRACT FUNCTIONS                             */\r\n    /********************************************************************************************/\r\n\r\n    // function to add tool to user\r\n\r\n    /**\r\n    * @dev Register a tool for a certain user\r\n    */\r\n    function registerTool (\r\n                                address _accountUser,\r\n                                address _accountTool\r\n                            )\r\n                            public\r\n                            onlyHilti\r\n                            checkUser(_accountUser)\r\n                            requireFreeTool(_accountTool)\r\n    {\r\n        toolData[_accountTool].isAssigned = true;\r\n        toolData[_accountTool].userAccount = _accountUser;\r\n        userData[_accountUser].toolList.push(_accountTool);\r\n        emit ToolAssigned(_accountUser, _accountTool);\r\n    }\r\n\r\n    // TODO: function to remove tool from user\r\n\r\n    // TODO: function to request upload from user --> emit Event\r\n    // check if it is tool (directly fom tool? from Hilti account?)\r\n    /**\r\n    * @dev function to request upload from user --> emit Event\r\n    */\r\n    function requestUpload (\r\n                                address _accountTool\r\n                            )\r\n                            public\r\n                            onlyHilti\r\n                            checkTool(_accountTool)\r\n    {\r\n        //check if data upload not requested yet\r\n        require(toolData[_accountTool].uploadRequest == false, \"This tool already requires data upload\");\r\n        //save data to struct\r\n        toolData[_accountTool].uploadRequest = true;\r\n        //emit event\r\n        emit UploadRequest(_accountTool);\r\n    }\r\n\r\n\r\n    /**\r\n    * @dev upload tool data (by user), get token for it (mint 1 token)\r\n    */\r\n    function uploadData (\r\n                                address _accountTool,\r\n                                uint256 _usageTime\r\n                            )\r\n                            public\r\n                            checkUser(msg.sender)\r\n                            checkTool(_accountTool)\r\n    {\r\n        //check if right tool\r\n        require(toolData[_accountTool].userAccount == msg.sender, \"This tool is not registered on your account\");\r\n        //check if data needs to be uploaded\r\n        require(toolData[_accountTool].uploadRequest == true, \"This tool does not request data upload\");\r\n        // set upload request back to false\r\n        toolData[_accountTool].uploadRequest = false;\r\n        //save data to struct\r\n        toolData[_accountTool].usageTime.push(_usageTime);\r\n        toolData[_accountTool].timeStamps.push(block.timestamp);\r\n        //credit Hilti Token_Amount to balance\r\n        userData[msg.sender].creditedAmount += (TOKEN_AMOUNT); //TODO: use safemath .add() somehow not working\r\n        //emit event\r\n        emit DataUploaded(msg.sender, _accountTool, block.timestamp, _usageTime);\r\n    }\r\n\r\n    /**\r\n    * @dev claim credited tokens\r\n    */\r\n    function claimTokens ()\r\n                            public\r\n                            checkUser(msg.sender)\r\n    {\r\n        //check if credited amount is >0\r\n        require(userData[msg.sender].creditedAmount != 0, \"No amount was credited to your address.\");\r\n        uint256 elegibleAmount = userData[msg.sender].creditedAmount;\r\n        //delete so he can not ask twice for crediting\r\n        delete userData[msg.sender].creditedAmount;\r\n        //mint Hilti token to the sender address\r\n        _mint(msg.sender, elegibleAmount);\r\n        //emit event\r\n        emit AccountCredited(msg.sender, elegibleAmount);\r\n    }\r\n\r\n    /**\r\n    * @dev transfer tokens to other address\r\n    */\r\n    function transferTokens (\r\n                                address _recipient,\r\n                                uint256 _amount\r\n                            )\r\n                            public\r\n                            checkUser(msg.sender)\r\n                            checkUser(_recipient)\r\n    {\r\n        //check if token balance is >= _amount\r\n        uint256 tokenBalance = balanceOf(msg.sender);\r\n        require(tokenBalance >= _amount, \"TokenBalance not large enough\");\r\n        //transfer tokens\r\n        transfer(_recipient, _amount);\r\n        //emit event\r\n        emit HiltiTokenTransferred(msg.sender, _recipient, _amount);\r\n    }\r\n\r\n    /**\r\n    * @dev redeem discount by sending tokens (burning them)\r\n    */\r\n    function redeemDiscount (\r\n                                uint256 _amount\r\n                            )\r\n                            public\r\n                            checkUser(msg.sender)\r\n    {\r\n        //check if token balance is >= _amount\r\n        uint256 tokenBalance = balanceOf(msg.sender);\r\n        require(tokenBalance >= _amount, \"TokenBalance not large enough\");\r\n        //check if MAXIMUM_DISCOUNT is not reached\r\n        require(userData[msg.sender].currentDiscount <= MAXIMUM_DISCOUNT, \"You are already at the maximum discount level\");\r\n        //burn tokens\r\n        _burn(msg.sender, _amount);\r\n        //calculate discount to add in %\r\n        //TODO: do not hardcode this\r\n        uint256 eligibleDiscount = _amount;\r\n        //credit discount\r\n        userData[msg.sender].currentDiscount += (eligibleDiscount); //TODO: use safemath operators\r\n        //emit event\r\n        emit DiscountCredited(msg.sender, eligibleDiscount);\r\n    }\r\n\r\n    /**\r\n    * @dev Check user information\r\n    *\r\n    */\r\n    function fetchUserData\r\n                                (\r\n                                    address _account\r\n                                )\r\n                                public\r\n                                view\r\n                                returns(\r\n                                    address,\r\n                                    address[] memory,\r\n                                    uint256,\r\n                                    uint256,\r\n                                    string memory\r\n                                )\r\n    {\r\n        return(\r\n            userData[_account].userAccount,\r\n            userData[_account].toolList,\r\n            userData[_account].creditedAmount,\r\n            userData[_account].currentDiscount,\r\n            userData[_account].name\r\n        );\r\n    }\r\n\r\n    /**\r\n    * @dev Check tool information\r\n    *\r\n    */\r\n    function fetchToolData\r\n                                (\r\n                                    address _account\r\n                                )\r\n                                public\r\n                                view\r\n                                returns(\r\n                                    address,\r\n                                    uint256[] memory,\r\n                                    uint256[] memory,\r\n                                    bool,\r\n                                    address,\r\n                                    bool,\r\n                                    string memory\r\n                                )\r\n    {\r\n        return(\r\n            toolData[_account].toolAccount,\r\n            toolData[_account].usageTime,\r\n            toolData[_account].timeStamps,\r\n            toolData[_account].isAssigned,\r\n            toolData[_account].userAccount,\r\n            toolData[_account].uploadRequest,\r\n            toolData[_account].name\r\n        );\r\n    }\r\n\r\n}",
  "sourcePath": "C:/WorkingSpace/Source/New IT Challenge/itChallenge2020/contracts/HiltiContract.sol",
  "compiler": {
    "name": "solc",
    "version": "0.5.12+commit.7709ece9.Emscripten.clang"
  },
  "schemaVersion": "3.0.19",
  "updatedAt": "2019-12-16T16:56:04.035Z",
  "networkType": "ethereum",
  "devdoc": {
    "methods": {
      "addTool(address,string)": {
        "details": "Add Tool - Only allowed by Hilti account"
      },
      "addUser(address,string)": {
        "details": "Add User - Only allowed by Hilti account"
      },
      "allowance(address,address)": {
        "details": "See {IERC20-allowance}."
      },
      "approve(address,uint256)": {
        "details": "See {IERC20-approve}.     * Requirements:     * - `spender` cannot be the zero address."
      },
      "balanceOf(address)": {
        "details": "See {IERC20-balanceOf}."
      },
      "claimTokens()": {
        "details": "claim credited tokens"
      },
      "constructor": {
        "details": "Constructor     The deploying account becomes contractOwner     This needs to be a Hilti account!"
      },
      "decreaseAllowance(address,uint256)": {
        "details": "Atomically decreases the allowance granted to `spender` by the caller.     * This is an alternative to {approve} that can be used as a mitigation for problems described in {IERC20-approve}.     * Emits an {Approval} event indicating the updated allowance.     * Requirements:     * - `spender` cannot be the zero address. - `spender` must have allowance for the caller of at least `subtractedValue`."
      },
      "fetchToolData(address)": {
        "details": "Check tool information     "
      },
      "fetchUserData(address)": {
        "details": "Check user information     "
      },
      "increaseAllowance(address,uint256)": {
        "details": "Atomically increases the allowance granted to `spender` by the caller.     * This is an alternative to {approve} that can be used as a mitigation for problems described in {IERC20-approve}.     * Emits an {Approval} event indicating the updated allowance.     * Requirements:     * - `spender` cannot be the zero address."
      },
      "redeemDiscount(uint256)": {
        "details": "redeem discount by sending tokens (burning them)"
      },
      "registerTool(address,address)": {
        "details": "Register a tool for a certain user"
      },
      "requestUpload(address)": {
        "details": "function to request upload from user --> emit Event"
      },
      "totalSupply()": {
        "details": "See {IERC20-totalSupply}."
      },
      "transfer(address,uint256)": {
        "details": "See {IERC20-transfer}.     * Requirements:     * - `recipient` cannot be the zero address. - the caller must have a balance of at least `amount`."
      },
      "transferFrom(address,address,uint256)": {
        "details": "See {IERC20-transferFrom}.     * Emits an {Approval} event indicating the updated allowance. This is not required by the EIP. See the note at the beginning of {ERC20};     * Requirements: - `sender` and `recipient` cannot be the zero address. - `sender` must have a balance of at least `amount`. - the caller must have allowance for `sender`'s tokens of at least `amount`."
      },
      "transferTokens(address,uint256)": {
        "details": "transfer tokens to other address"
      },
      "uploadData(address,uint256)": {
        "details": "upload tool data (by user), get token for it (mint 1 token)"
      }
    }
  },
  "userdoc": {
    "methods": {}
  }
}