{
  "contractName": "HiltiRole",
  "abi": [
    {
      "inputs": [],
      "payable": false,
      "stateMutability": "nonpayable",
      "type": "constructor"
    },
    {
      "anonymous": false,
      "inputs": [
        {
          "indexed": true,
          "internalType": "address",
          "name": "account",
          "type": "address"
        }
      ],
      "name": "HiltiAdded",
      "type": "event"
    },
    {
      "anonymous": false,
      "inputs": [
        {
          "indexed": true,
          "internalType": "address",
          "name": "account",
          "type": "address"
        }
      ],
      "name": "HiltiRemoved",
      "type": "event"
    },
    {
      "constant": true,
      "inputs": [
        {
          "internalType": "address",
          "name": "account",
          "type": "address"
        }
      ],
      "name": "isHilti",
      "outputs": [
        {
          "internalType": "bool",
          "name": "",
          "type": "bool"
        }
      ],
      "payable": false,
      "stateMutability": "view",
      "type": "function"
    },
    {
      "constant": false,
      "inputs": [],
      "name": "renouncHilti",
      "outputs": [],
      "payable": false,
      "stateMutability": "nonpayable",
      "type": "function"
    }
  ],
  "bytecode": "0x608060405234801561001057600080fd5b506100203361002560201b60201c565b610242565b61003d81600061008360201b6102be1790919060201c565b8073ffffffffffffffffffffffffffffffffffffffff167fc846bdb9eebcaecb800772b10fc39f9f0d434e2e797a40e9f0c28819131fda3d60405160405180910390a250565b610093828261016460201b60201c565b15610106576040517f08c379a000000000000000000000000000000000000000000000000000000000815260040180806020018281038252601f8152602001807f526f6c65733a206163636f756e7420616c72656164792068617320726f6c650081525060200191505060405180910390fd5b60018260000160008373ffffffffffffffffffffffffffffffffffffffff1673ffffffffffffffffffffffffffffffffffffffff16815260200190815260200160002060006101000a81548160ff0219169083151502179055505050565b60008073ffffffffffffffffffffffffffffffffffffffff168273ffffffffffffffffffffffffffffffffffffffff1614156101eb576040517f08c379a00000000000000000000000000000000000000000000000000000000081526004018080602001828103825260228152602001806106626022913960400191505060405180910390fd5b8260000160008373ffffffffffffffffffffffffffffffffffffffff1673ffffffffffffffffffffffffffffffffffffffff16815260200190815260200160002060009054906101000a900460ff16905092915050565b610411806102516000396000f3fe608060405234801561001057600080fd5b50600436106100365760003560e01c8063051817ca1461003b5780630661a28e14610045575b600080fd5b6100436100a1565b005b6100876004803603602081101561005b57600080fd5b81019080803573ffffffffffffffffffffffffffffffffffffffff1690602001909291905050506100ac565b604051808215151515815260200191505060405180910390f35b6100aa336100c9565b565b60006100c282600061012390919063ffffffff16565b9050919050565b6100dd81600061020190919063ffffffff16565b8073ffffffffffffffffffffffffffffffffffffffff167f5d5dda5b73c8f1af11ce2d27f2d63ebb3cac1cf4cef2c4e339afb3d674479a7760405160405180910390a250565b60008073ffffffffffffffffffffffffffffffffffffffff168273ffffffffffffffffffffffffffffffffffffffff1614156101aa576040517f08c379a00000000000000000000000000000000000000000000000000000000081526004018080602001828103825260228152602001806103bb6022913960400191505060405180910390fd5b8260000160008373ffffffffffffffffffffffffffffffffffffffff1673ffffffffffffffffffffffffffffffffffffffff16815260200190815260200160002060009054906101000a900460ff16905092915050565b61020b8282610123565b610260576040517f08c379a000000000000000000000000000000000000000000000000000000000815260040180806020018281038252602181526020018061039a6021913960400191505060405180910390fd5b60008260000160008373ffffffffffffffffffffffffffffffffffffffff1673ffffffffffffffffffffffffffffffffffffffff16815260200190815260200160002060006101000a81548160ff0219169083151502179055505050565b6102c88282610123565b1561033b576040517f08c379a000000000000000000000000000000000000000000000000000000000815260040180806020018281038252601f8152602001807f526f6c65733a206163636f756e7420616c72656164792068617320726f6c650081525060200191505060405180910390fd5b60018260000160008373ffffffffffffffffffffffffffffffffffffffff1673ffffffffffffffffffffffffffffffffffffffff16815260200190815260200160002060006101000a81548160ff021916908315150217905550505056fe526f6c65733a206163636f756e7420646f6573206e6f74206861766520726f6c65526f6c65733a206163636f756e7420697320746865207a65726f2061646472657373a265627a7a72315820774a4e0013ed3fe0efb2b29cc51b1751a0e7fb7e08dc70bfb4d18fa36e5678f564736f6c634300050c0032526f6c65733a206163636f756e7420697320746865207a65726f2061646472657373",
  "source": "pragma solidity ^0.5.0;\r\n\r\n// Import 'Roles' from OpenZeppelin:\r\nimport \"../client/node_modules/openzeppelin-solidity/contracts/access/Roles.sol\";\r\n\r\n// Define a contract 'HiltiRole' to manage this role - add, remove, check\r\ncontract HiltiRole {\r\n  using Roles for Roles.Role;\r\n\r\n  // Events, one for Adding, and other for Removing\r\n  event HiltiAdded(address indexed account);\r\n  event HiltiRemoved(address indexed account);\r\n\r\n  // Defining a struct 'hilti' by inheriting from 'Roles' library, struct Role\r\n  Roles.Role private hilti_accounts;\r\n\r\n  // In the constructor make the address that deploys this contract the 1st Hilti Account\r\n  constructor() public {\r\n    _addHilti(msg.sender);\r\n  }\r\n\r\n  // Defining a modifier that checks to see if msg.sender has the appropriate role\r\n  modifier onlyHilti() {\r\n    require(isHilti(msg.sender), \"sender is not a Hilti account\");\r\n    _;\r\n  }\r\n\r\n  // Define a function 'isHilti' to check this role\r\n  function isHilti(address account) public view returns (bool) {\r\n    return hilti_accounts.has(account);\r\n  }\r\n\r\n  // Define a function 'addHilti' that adds this role --> in HiltiContract because it need onlyHilti modifier!\r\n  /*function addHilti(address account) public {\r\n    _addHilti(account);\r\n  }*/\r\n\r\n  // Define a function 'renounceHilti' to renounce this role\r\n  function renouncHilti() public {\r\n    _removeHilti(msg.sender);\r\n  }\r\n\r\n  // Define an internal function '_addHilti' to add this role, called by 'addHilti'\r\n  function _addHilti(address account) internal {\r\n    hilti_accounts.add(account);\r\n    emit HiltiAdded(account);\r\n  }\r\n\r\n  // Define an internal function '_removeHilti' to remove this role, called by 'removeHilti'\r\n  function _removeHilti(address account) internal {\r\n    hilti_accounts.remove(account);\r\n    emit HiltiRemoved(account);\r\n  }\r\n}",
  "sourcePath": "C:\\WorkingSpace\\Source\\New IT Challenge\\itChallenge2020\\contracts\\HiltiRole.sol",
  "compiler": {
    "name": "solc",
    "version": "0.5.12+commit.7709ece9.Emscripten.clang"
  },
  "schemaVersion": "3.0.19",
  "updatedAt": "2020-01-19T18:46:41.956Z",
  "networkType": "ethereum",
  "devdoc": {
    "methods": {}
  },
  "userdoc": {
    "methods": {}
  }
}